:040000008EEF19F076
:08000800046ED8CF05F0E0CF33
:1000100006F00001E9CF0CF0EACF07F0E1CF08F0DD
:10002000E2CF09F0D9CF0AF0DACF0BF0F3CF12F01C
:10003000F4CF13F0FACF14F000C00EF001C00FF0AF
:1000400002C010F003C011F0F2A82AEF00F0F2B2E3
:1000500091EF04F09DAA30EF00F09EBAEEEF02F0AF
:10006000F2AA36EF00F0F2B4D2EF03F00EC000F0C7
:100070000FC001F010C002F011C003F00CC0E9FF86
:1000800007C0EAFF078E08C0E1FF09C0E2FF0AC00F
:10009000D9FF0BC0DAFF12C0F3FF13C0F4FF14C086
:1000A000FAFF045006C0E0FF05C0D8FF1000F2CFF1
:1000B0000DF0F29EF76AC80FF66E000EF7220900E7
:1000C000F5500DBEF28E12002B434D544900F2CF75
:1000D0000DF0F29EF76AE80FF66E000EF7220900A7
:1000E000F5500DBEF28E12002B434D474C00F2CF5F
:1000F0000DF0F29EF76A080FF66E010EF722090066
:10010000F5500DBEF28E12004F4954414900F2CF16
:100110000DF0F29EF76A280FF66E010EF722090025
:10012000F5500DBEF28E12004845415254424541F1
:1001300054282900F2CF0DF0F29EF76A4E0FF66EAA
:10014000010EF7220900F5500DBEF28E12002B4E63
:10015000554D41444400F2CF0DF0F29EF76A700F06
:10016000F66E010EF7220900F5500DBEF28E120058
:100170002B4E554D44454C00F2CF0DF0F29EF76AE0
:10018000920FF66E010EF7220900F5500DBEF28EA9
:1001900012004F4B20434C45415220414C4C000033
:1001A000F2CF0DF0F29EF76ABA0FF66E010EF7224B
:1001B0000900F5500DBEF28E12002B47534D4C4FE7
:1001C000434154450000F2CF0DF0F29EF76AE00F74
:1001D000F66E010EF7220900F5500DBEF28E1200E8
:1001E0002B4355524C494D00F2CF0DF0F29EF76A69
:1001F000020FF66E020EF7220900F5500DBEF28EC8
:1002000012002B435552414C4D00F2CF0DF0F29E9F
:10021000F76A240FF66E020EF7220900F5500DBEA4
:10022000F28E12002B43535441545300F2CF0DF081
:10023000F29EF76A460FF66E020EF7220900F5509D
:100240000DBEF28E12002B5345545A45524F0000FA
:10025000F2CF0DF0F29EF76A6A0FF66E020EF722E9
:100260000900F5500DBEF28E12005A45524F205330
:10027000455445440000F2CF0DF0F29EF76A900F0E
:10028000F66E020EF7220900F5500DBEF28E120036
:1002900041542B434D47463D310D0A00F2CF0DF03E
:1002A000F29EF76AB60FF66E020EF7220900F550BD
:1002B0000DBEF28E120041542B43534D503D313749
:1002C0002C3235352C302C300D0A0000F2CF0DF0D9
:1002D000F29EF76AE60FF66E020EF7220900F5505D
:1002E0000DBEF28E12002B434D47533A0000F2CF61
:1002F0000DF0F29EF76A080FF66E030EF722090062
:10030000F5500DBEF28E120041542B434D474C3D2B
:100310002252454320554E52454144220D0A0000C9
:10032000F2CF0DF0F29EF76A3A0FF66E030EF72247
:100330000900F5500DBEF28E120041542B43474187
:1003400054543D310D0A0000F2CF0DF0F29EF76AD1
:10035000620FF66E030EF7220900F5500DBEF28E05
:10036000120041542B53415042523D332C312C2228
:10037000434F4E54595045222C2247505253220D80
:100380000A00F2CF0DF0F29EF76A9C0FF66E030E94
:10039000F7220900F5500DBEF28E120041542B5386
:1003A000415042523D332C312C2241504E222C22BE
:1003B000434D4E4554220D0A0000F2CF0DF0F29E3F
:1003C000F76AD40FF66E030EF7220900F5500DBE42
:1003D000F28E120041542B53415042523D312C3188
:1003E0000D0A0000F2CF0DF0F29EF76AFE0FF66ED6
:1003F000030EF7220900F5500DBEF28E1200415493
:100400002B53415042523D322C310D0A0000F2CFA5
:100410000DF0F29EF76A280FF66E040EF72209001F
:10042000F5500DBEF28E12002B53415042523A004D
:10043000F2CF0DF0F29EF76A4A0FF66E040EF72225
:100440000900F5500DBEF28E120041542B434C4270
:10045000534346473D302C310D0A0000F2CF0DF0DA
:10046000F29EF76A760FF66E040EF7220900F55039
:100470000DBEF28E12002B434C42534346473A00C6
:10048000F2CF0DF0F29EF76A9A0FF66E040EF72285
:100490000900F5500DBEF28E120041542B434C4220
:1004A000533D312C310D0A00F2CF0DF0F29EF76A68
:1004B000C20FF66E040EF7220900F5500DBEF28E43
:1004C00012002B434C42533A0000F2CF0DF0F29E43
:1004D000F76AE40FF66E040EF7220900F5500DBE20
:1004E000F28E120041542B53415042523D302C3178
:1004F0000D0A0000F2CF0DF0F29EF76A0E0FF66EB5
:10050000050EF7220900F5500DBEF28E12003033B1
:10051000313939353832323733390000F2CF0DF006
:10052000F29EF76A360FF66E050EF7220900F550B7
:100530000DBEF28E1200494E494349414E444F2EA2
:100540002E2E0000F2CF0DF0F29EF76A5E0FF66ECF
:10055000050EF7220900F5500DBEF28E120041542F
:100560002B434D47443D312C310D0A00F2CF0DF0A5
:10057000F29EF76A860FF66E050EF7220900F55017
:100580000DBEF28E120021212121414C45525441D1
:100590003A204261746572696120656D20646573FB
:1005A00063617267612072617069646120564552AF
:1005B00049464951554520534555205645494355CF
:1005C0004C4F212121009EAAFED7ABCF16F0AECF13
:1005D00001F016A202D0AB98AB881200010E070101
:1005E000316F9EAA53D0010182A102D007014ED0E3
:1005F0000001E9DF01C032F7070132513E0809E08E
:1006000032512B0806E032510A0803E032510D083E
:100610003DE132C752F03151930829E30101805383
:1006200005E18153D8A402D0070121D09EAA19D098
:100630000001C9DF01C032F7036A07013151520FCF
:10064000E96E000E0320EA6E32C7EFFF32513B081D
:1006500002E1312B0CD0312B860E0101816FA00EEF
:10066000806F8051D8B4810780070701D4D701017A
:100670008281860E816FA00E806F036A070131515F
:10068000520FE96E000E0320EA6EEF6A9E9A000197
:1006900036EF00F0436F7272656E7465204C696DC1
:1006A000697465203D20254C75206D41000054651E
:1006B0006D706F20456E74726520416C6572746157
:1006C00073203D20254C75206D696E0054656D705A
:1006D0006F20456E74726520416C65727461732081
:1006E0003D20254C75206D696E202F20436F72725E
:1006F000656E7465204C696D697465203D20254CDC
:1007000075206D41202F20436F7272656E746520D5
:10071000417475616C3A2025362E3066206D41207B
:100720002F2054656E73616F20417475616C3A209F
:1007300025322E32662056202F20517464205465B5
:100740006C65666F6E65733A2025750041542B43C6
:100750004D47533D222573220D0A0000016A026AAB
:10076000006A036A0701345102E1335118E0100EA8
:10077000356FD89031373237003603363451035C49
:1007800002E13351005C07E33351005ED8A0030659
:100790003451035ED88001360236352FEAD7000186
:1007A00012EF04F0D76A060ED66E010182A92DD091
:1007B0008C8003015F5101081DE303E15E518F0846
:1007C00019E3CE0E5E25E96E010E5F21EA6EC2824C
:1007D000C2B2FED70701C430036EC330026E0332CB
:1007E00002323F0E031602C0EFFF03015E2BD8B4A6
:1007F0005F2B09D05F6B5E6B01018299828B8C90BD
:100800009D8AF288030189D00101C92BD8B4CA2B73
:10081000CAC132F7C9C131F70701346B050E336F16
:1008200000019CD700C031F7070103C032F73153F4
:1008300059E1325357E10101827F82AF34D0D89021
:1008400003016035036A640FE96E030E0320EA6E4C
:10085000C282C2B2FED7C3CFEFFFC4CFECFF0C0EF3
:10086000016EC250C30B0110C26E0C0E006E002E42
:10087000FED700D00000D8906035036A2C0FE96ED7
:10088000040E0320EA6EC282C2B2FED7C3CFEFFFCE
:10089000C4CFECFF040E016EC250C30B0110C26E38
:1008A000602B1FD00101036A03016151F40FE96E4F
:1008B000040E0320EA6EC282C2B2FED70701C43022
:1008C000036EC330026E033202323F0E031602C0C3
:1008D000EFFF080E016EC250C30B0110C26E030180
:1008E000612B07010101C951E80816E1CA5103084B
:1008F00013E1CB2BD8B4CC2BCA6BC96B8285030117
:10090000606B616B89700101CB513C0805E1CC53F0
:1009100003E1CC6BCB6B82870301F294000136EFCD
:1009200000F0040E016EC250C30B0110C26E9D9AFE
:10093000F29801018289828D829B03015F6B5E6B5D
:10094000F292000136EF00F044657465637420484C
:100950006967682043757272656E740D0A0044659C
:1009600074656374204C6F772043757272656E7482
:100970000D0A000054656D706F20456E747265201D
:10098000416C657274617320254C75202C20546570
:100990006D706F20556C74696D6F6920416C657264
:1009A000746120254C75200D0A0053656E64205338
:1009B0004D53204E756D65726F202825752F257556
:1009C000293A2025730D0A00436F7272656E7465B3
:1009D0003A2025362E30662054656E73616F3A20BA
:1009E00025322E3266200D0A0000000E06015A5FE5
:1009F0005B5BF00E5C5B000E5D5B616B6051615D8B
:100A00001DE2036A61515E25E96E5F510320EA6EC3
:100A1000F2CF64F6F29E5AC6A9FFA69CA69EA680B7
:100A2000A85064BFF28EEF6E010E5A27D8B05B2B30
:100A3000D8B45C2BD8B45D2B612BE0D70001120039
:100A400006015D6BF00E5C6F5B6B5A6B010E5F6FA6
:100A5000870E5E6F040E606F0001C7DF06015D6BDD
:100A6000F00E5C6F5B6B040E5A6F060E5F6F270E05
:100A70005E6F040E606F0001B8DF06015D6BF00E63
:100A80005C6F5B6B080E5A6F010E5F6F830E5E6FBB
:100A9000040E606F0001A9DF06015D6BF00E5C6F54
:100AA0005B6B0C0E5A6F010E5F6F930E5E6F040E40
:100AB000606F00019ADF06015D6BF00E5C6F5B6B8F
:100AC000100E5A6F5F6B4F0E5E6F010E606F00016C
:100AD0008CDF06015D6BF00E5C6F5B6B110E5A6F65
:100AE0005F6B1D0E5E6F320E606F00017EDF1DEFCB
:100AF0001AF0070EEA6E260EE96EEF500EE0050EB4
:100B0000016E006A002EFED7012EFBD72E0E006E5E
:100B1000002EFED700D0EF2EF2D712009CC1EAFFC4
:100B20009BC1E9FF07011AC7EFFFE92AD8B4EA2AF7
:100B3000EF6A01019B2BD8B49C2B00011200090025
:100B4000F6CF18F7F7CF19F7F5CF1AF7E7DF18C781
:100B5000F6FF19C7F7FF0701172F01D002D00001D8
:100B6000EED700011200EF520FE0EACF18F7E9CFFD
:100B700017F7EFCF1AF7D2DF18C7EAFF17C7E9FF59
:100B8000E92AD8B4EA2AEFD7B1EF06F0EF5210E025
:100B9000EACF27F7E9CF26F7EF509EA8FED7AD6E34
:100BA00027C7EAFF26C7E9FFE92AD8B4EA2AEED721
:100BB0003CEF06F029C703F0070128C7E9FF29C762
:100BC000EAFFEF5239E029C72DF728C72CF72BC7CA
:100BD0002FF72AC72EF72FC703F02EC7E9FF2FC71D
:100BE000EAFFEF5216E02CC7E9FF2DC7EAFFEFCF6F
:100BF00030F72FC703F02EC7E9FF2FC7EAFFEF50EA
:100C0000305D07E12C2BD8B42D2B2E2BD8B42F2BF5
:100C1000E2D72FC703F02EC7E9FF03C0EAFFEF5268
:100C200005E128C701F029C702F009D0282BD8B464
:100C3000292B0001BFD70701000E016E026E0001D3
:100C400012009EA8FED7AD6E61EF06F0020E0701FE
:100C50001F6FF29A9D8AC00EF2120101A06B6A0EFC
:100C60009F6FCF0E9E6FC00E9D6F82911CC7EAFFD3
:100C70001BC7E9FF00018AD72B0E0701206F430E27
:100C8000216F4D0E226F470E236F530E246F256B7D
:100C90001EC729F71DC728F7070E2B6F200E2A6FD6
:100CA000000188DF02C029F701C028F70701285397
:100CB00002E1295307E0960E266F00011ADF1A0E93
:100CC000C0D70701010182B110D0FF0E9D27D8A027
:100CD0009E27D8A09F27D8A0A0279D53F4E19E531C
:100CE000F2E19F53F0E1A053EEE182A11BD082918B
:100CF0000701296B520E286F1EC72BF71DC72AF755
:100D0000000158DF02C07FF101C07EF101017E5376
:100D100002E17F5307E09D8AF28AC00EF212010EB3
:100D2000016E0AD007011F2F98D7C00EF2129D8ABC
:100D3000F28A000E016E010100011200060E01018F
:100D40009C6FDC0E9B6F4C0EF66E070EF76E090E55
:100D50000701176F0001F3DED9C6EAFFD8C6E9FF25
:100D600002D7570EF66E070EF76E030E0701176FC8
:100D70000001E5DE060EEA6EE968F2CF17F7F29E93
:100D80000C0E016EF76A000E3BEC01F00A00090040
:100D9000F5CFEEFF012EFBD7070117BFF28E4F0EE6
:100DA0000B6F4B0E0C6F0D6B060E1C6F1B69070E45
:100DB0001E6F0B0E1D6F000149DF015258E0060E39
:100DC000EA6EE968F2CF17F7F29E150E016EF76A28
:100DD000000E4EEC01F00A000900F5CFEEFF012EE7
:100DE000FBD7070117BFF28E4F0E146F4B0E156F16
:100DF000166B060E1C6F1B69070E1E6F140E1D6FFF
:100E0000000124DF015233E03E0E0601FF6F0701AF
:100E1000006B060E1C6FDC0E1B6F060E1E6F1D692D
:100E2000000114DF015223E0060EEA6EE968F2CFFA
:100E300017F7F29E070E016EF76A000E66EC01F0DE
:100E40000A000900F5CFEEFF012EFBD7070117BFFF
:100E5000F28EDBC61CF7DAC61BF7060E1E6F1D6985
:100E60000001F4DE015203E0010E016E02D0000E1B
:100E7000016E12000601A46BA36B010EA05DA453CA
:100E8000D8A482D0A35DD8B07FD0010EA325A56FD2
:100E9000000EA421A66FA65373E1A051A55D70E2D8
:100EA000D890A335026EA435036E02509E25E96EDC
:100EB0009F510320EA6EECCFA8F6ED52EFCFA7F6D4
:100EC000D890A535026EA635036E02509E25E96EB8
:100ED0009F510320EA6EECCF03F0ED52EFCF01F00B
:100EE000A851035C49E303E10150A75D45E2D890B6
:100EF000A335026EA435036E02509E25E96E9F5104
:100F00000320EA6EECCFA2F6ED52EFCFA1F6D89017
:100F1000A335026EA435036E02509E25016E9F51CB
:100F2000032203C0A8F6D890A535026EA635036E3D
:100F300002509E25E96E9F510320EA6EECCF03F02C
:100F4000ED52EFCFA9F6A8C6EAFF01C0E9FF03C042
:100F5000ECFFED52A9C6EFFFD890A535026EA6357D
:100F6000036E02509E25E96E9F510320EA6EA2C6D1
:100F7000ECFFED52A1C6EFFFA52BD8B4A62B8BD763
:100F8000A32BD8B4A42B79D7640E9E25E96E000E4E
:100F90009F21EA6EEFCF01F0E92AEF50E906026ED9
:100FA000000112008E0E006E9FC601F09EC602F078
:100FB000036A015209E102C001F0026A080E005EF4
:100FC000015202E1006A08D0D89001BE04D0023676
:100FD00001360006F9D7019E12000601C051D8B4AF
:100FE00071D0006EC451D8B46DD0002604E3810ED8
:100FF000002668E204D07F0E005E64E363E0C1C6B1
:10100000C8F6C551C81BC18FC58FC351C703F4CFE4
:10101000CAF6C251C603F4CF03F0F3CFC9F6C70333
:10102000F350CA27F450C923000E0322C351C6034C
:10103000F350CA27F450C923000E026A0322022289
:10104000C151C703F350C927F4500322000E0222F6
:10105000C151C603F3500326F4500222000E016A68
:101060000122C351C503F350C927F4500322000ED7
:1010700002220122C251C503F3500326F45002227A
:10108000000E0122C151C503F3500226F450012283
:10109000002A01BE05D0C9370336023601360006E4
:1010A000000EC9AF0AD0032A02220122015005E135
:1010B000025003E1035001E1002AC8BF018EC8AF0E
:1010C000019E04D0006A016A026A036A00011200EC
:1010D000800ED8A202D00601A31B0601A86BA96B43
:1010E0009FC6A7F6A351A71B9E51D8B4DFD0A66F09
:1010F000006EA251D8B4E3D0A65FD8B483D03EE34B
:10110000A3C6ACF6AC8FA4C6ABF6A5C6AAF6A96B6F
:10111000D890AC33AB33AA33A933A62FF8D7A7AFF7
:1011200003D0A881E0D0A891A691A889060EEA6E06
:10113000A10EE96EEBD0A899A7BF0AD0A6A113D043
:10114000AC33AB33AA33A933002AD8B4C7D00BD001
:10115000ACBF0CD0D890A937AA37AB37AC37000654
:10116000D8B4BCD0F5D7A88D6DD0A89D9FC6A7F6E2
:101170009FAF02D0AC8FABD0AC9FA9D0A2C6A6F6D1
:10118000A2C600F09E51A65F9FC6ACF6AC8FA0C66B
:10119000ABF6A1C6AAF6A96BD890AC33AB33AA3391
:1011A000A933A62FF8D7A7AF03D0A8839CD0A893C4
:1011B000A691A88B060EEA6EA50EE96EA7D0A89B95
:1011C000A7BF0AD0A6A113D0AC33AB33AA33A9333F
:1011D000002AD8B483D00BD0ACBF0CD0D890A9379C
:1011E000AA37AB37AC370006D8B478D0F5D7A88F7C
:1011F00029D0A89FA3C6A7F6A3AF02D0AC8F67D013
:10120000AC9F65D0A3C6ACF6AC8FA4C6ABF6A5C6A2
:10121000AAF6A7AF04D0AC9FA88565D0A895A96B06
:10122000A691060EEA6EA10EE96E70D0A7BF1CD083
:101230009FC6A7F6A6A106D0AC33AB33AA33A93319
:10124000002A4CE0A9AF0BD0AA2B09E1AB2B07E198
:10125000AC2B05E1AC33AB33AA33002A3FE0A8BD89
:1012600084D7A8BFC6D71CD0800EAC1BACAF04D0AF
:101270003AD0A3C6A7F60AD09FC6A7F6AC5306E19C
:10128000AB5304E1AA5302E1006A21D0ACBF08D0FD
:10129000D890A937AA37AB37AC37002EF7D71ED076
:1012A000A7AF02D0AC8F13D0AC9F11D0A2C600F074
:1012B000A3C6ACF6A4C6ABF6A5C6AAF608D09EC6D1
:1012C00000F09FC6ACF6A0C6ABF6A1C6AAF6ACC6A7
:1012D00001F0ABC602F0AAC603F034D0006A016A7E
:1012E000026A036A2FD0A96BAA1FAB1FAC1FA91FEC
:1012F000A92B05E1AA2B03E1AB2B01E1AC2BA8B193
:1013000012D7A8B354D7A8B589D7B3D7EF50AA2717
:1013100005E3AB2B03E1AC2BD8B4A681ED52EF5023
:10132000AB2703E3AC2BD8B4A681ED52EF50EFBE50
:1013300001D0800AAC27D8B0A681A8B9FCD6A8BB3A
:101340003ED774D7000112009FC6A6F60601A3512E
:10135000A61BA6AF05D0D894D8909FBFD8802FD019
:101360009FC6A6F6A2C6A7F69E51A75F06E0A6AF47
:1013700026D0D850010AD86E22D0A3C6A7F69F5116
:10138000A75F06E0A6AF1BD0D850010AD86E17D0D1
:10139000A4C6A7F6A051A75F06E0A6AF10D0D8500C
:1013A000010AD86E0CD0A5C6A7F6A151A75F06E02A
:1013B000A6AF05D0D850010AD86E01D0D890000150
:1013C00012000601C051B608C06F036AC1C6C4F658
:1013D000C18FD890C133C233C333033202320132DA
:1013E0000032C02FF6D7C4AF0BD0001E011E021E64
:1013F000031E002AD8B4012AD8B4022AD8B4032A7A
:10140000000178EF0AF0D8B204D0060EEA6EC80EDA
:10141000E96E006A016A026A036A0601C86BC96B59
:10142000CA6BCB6BC751C611C511C4112CE0200E7D
:10143000CC6FD890C037C137C237C337C837C93728
:10144000CA37CB37C751CB5D08E1C651CA5D05E14C
:10145000C551C95D02E1C451C85D0FE3C451C85F05
:10146000C551D8A0C53DC95FC651D8A0C63DCA5F09
:10147000C751D8A0C73DCB5FD880003601360236B1
:101480000336CC2FD6D7C8C6EFFFC9C6ECFFCAC6F5
:10149000ECFFCBC6ECFF00011200E9500601B86F6B
:1014A000B751BA6F1BE0B6C6C3F6B5C6C2F6B4C62E
:1014B000C1F6B3C6C0F6C76BC66B200EC56F820EF1
:1014C000C46F00018ADD03C0B6F602C0B5F601C0E4
:1014D000B4F600C0B3F60601BA2FE5D7B6C6C3F618
:1014E000B5C6C2F6B4C6C1F6B3C6C0F6000169D728
:1014F00003C0B6F602C0B5F601C0B4F600C0B3F63C
:101500000601B6AF0DD0B807B88BB31FB41FB51F17
:10151000B61FB32BD8B4B42BD8B4B52BD8B4B62BD4
:101520003B0EBF6F9A0EBE6FCA0EBD6FBC6B0A0E2C
:10153000BA6FB751D8B4B82BD882060EEA6EB30E84
:10154000E96EB6C6C3F6B5C6C2F6B4C6C1F6B3C632
:10155000C0F6BFC6C7F6BEC6C6F6BDC6C5F6BCC693
:10156000C4F6000150DF0150005213E10601B72913
:10157000BA5DD8A402D000010CD0B8510DE00F0B19
:10158000BA5D01E047E2B8BF45D0B8BD05D0200E36
:101590003AD0200E0601B817B8AB10D0B89BB7519F
:1015A000D8A4B8070050B86F2D0E07011A6F0001BC
:1015B0008EEC05F00601B851006EB86BB751BA5DFC
:1015C0000EE10050B86F2E0E07011A6F00018EEC6D
:1015D00005F00601B851006E200EB817000E300E4F
:1015E000B8AB11D0B89BB751D8A4B8070050B86FAA
:1015F0002D0E07011A6F00018EEC05F00601B8519F
:10160000006EB86B300E002600C01AF700018EEC99
:1016100005F00601D892BFC6C3F6BEC6C2F6BDC667
:10162000C1F6BCC6C0F6C76BC66BC56B0A0EC46FED
:101630000001E9DE03C0BFF602C0BEF601C0BDF680
:1016400000C0BCF60601BA2F77D7000112009394B0
:101650008A94080E016E00D00000018E10D0019E09
:101660000601A6330001D8B08A84D8A08A94018CE0
:1016700006D0019C012EF4D700D000008A84840E8D
:10168000E96EE92EFED700D0000001BEE8D701BC0C
:10169000F0D71200EF520FE0EACF9FF6E9CF9EF6A7
:1016A000EFCFA6F6D4DF9FC6EAFF9EC6E9FFE92A80
:1016B000D8B4EA2AEFD7120006016B6B6B6B6B5143
:1016C000630825E3D8906B35036A580F016E050E49
:1016D000032201C09EF603C09FF6D8906B35036AC3
:1016E000640FE96E030E0320EA6EECCF03F0ED52B7
:1016F000EFCFA0F603C0A1F69FC6EAFF01C0E9FF45
:1017000003C0ECFFED52A0C6EFFF6B2BD8D7050E40
:101710009F6F580E9E6F640EA06F00013AEC07F0A9
:1017200002C09FF601C09EF63DDC03C08EF102C0F0
:101730008DF101C08CF100C08BF106016B6B6B5118
:10174000630825E3D8906B35036A580F016E050EC8
:10175000032201C09EF603C09FF6D8906B35036A42
:101760002C0FE96E040E0320EA6EECCF03F0ED526D
:10177000EFCFA0F603C0A1F69FC6EAFF01C0E9FFC4
:1017800003C0ECFFED52A0C6EFFF6B2BD8D7050EC0
:101790009F6F580E9E6F640EA06F00013AEC07F029
:1017A00002C09FF601C09EF6D2EC07F003C023F6FC
:1017B00002C022F601C021F600C020F606016B6BC4
:1017C0006B5163081EE3D8906B35036A580F016EA6
:1017D000050E032201C09EF603C09FF6036A6B51FB
:1017E000F40FE96E040E0320EA6EEFCFA0F69FC659
:1017F000EAFF01C0E9FFEC6AED52A0C6EFFF6B2BD8
:10180000DFD7050E9F6F580E9E6F640EA06F00010C
:101810003AEC07F002C09FF601C09EF6D2EC07F04A
:1018200003C092F102C091F101C090F100C08FF1AC
:1018300092C1C3F691C1C2F690C1C1F68FC1C0F684
:10184000F10E0601C76FF00EC66F700EC56F7A0EEF
:10185000C46F0001EDEC07F003C092F102C091F1FA
:1018600001C090F100C08FF1D8828EC1A1F68DC168
:10187000A0F68CC19FF68BC19EF623C6A5F622C6A4
:10188000A4F621C6A3F620C6A2F622DC03C09AF174
:1018900002C099F101C098F100C097F1D8829AC1B5
:1018A000A1F699C1A0F698C19FF697C19EF696C180
:1018B000A5F695C1A4F694C1A3F693C1A2F608DCDF
:1018C00003C0A1F602C0A0F601C09FF600C09EF6BC
:1018D00003C0C3F602C0C2F601C0C1F600C0C0F624
:1018E0000601C76B800EC66F310EC56F870EC46FC1
:1018F0000001EDEC07F003C08EF102C08DF101C0D4
:101900008CF100C08BF10601A16B800EA06FBB0EA5
:101910009F6F880E9E6F8EC1A5F68DC1A4F68CC1F7
:10192000A3F68BC1A2F600010FDD19E38EC1A1F66B
:101930008DC1A0F68CC19FF68BC19EF60601A56BEA
:10194000800EA46F3B0EA36F880EA26F0001FCDC1B
:1019500006E301018E6B8D6B8C6B8B6B0001F29C2F
:10196000F29EF2BEFDD7060E01019C6F6C0E9B6FBE
:10197000C80EF66E090EF76E0A0E0701176F00010A
:101980009FEC05F0050EE96E8EC1B6F68DC1B5F679
:101990008CC1B4F68BC1B3F60601B76B00017DDDD7
:1019A000D70EF66E090EF76E090E0701176F0001CC
:1019B0009FEC05F0890EE96E92C1B6F691C1B5F6BD
:1019C00090C1B4F68FC1B3F6020E0601B76F0001E5
:1019D00064DDE50EF66E090EF76E030E0701176F54
:1019E00000019FEC05F0060EEA6E6C0EE96E52DE09
:1019F000C00EF21201EF17F0B60E006E036A026A13
:101A0000016A06016B516C116D116E1102E1006AE1
:101A10000DD0D89001BE09D06B376C376D376E375B
:101A2000033602360136002EF4D7019E00010BEF7B
:101A300017F00900F5520CE0F6CF6BF6F7CF6CF615
:101A4000F5CFA6F604DE6BC6F6FF6CC6F7FFF1D73E
:101A500012000301626963695F6B5E6B5F6B5E6BB3
:101A60005F5318E15E510E0815E3CE0E5E25E96E58
:101A7000010E5F21EA6E6251EF5C08E2F40E5E2512
:101A8000E96E040E5F21EA6EEFCF62F35E2BD8B4ED
:101A90005F2BE6D7000153EF17F0EA6AE80EE96E14
:101AA000E26A520EE16EE752E6CFEEFFFCE1060E6F
:101AB000EA6E6B0EE96EF2CF7AF6F29E000E57ECEC
:101AC00000F00A000900F550EE6E0009FBE1060186
:101AD0007ABFF28E0701296BE80E286F060E2B6F76
:101AE0006B0E2A6F0001DAEC05F002C07FF101C035
:101AF0007EF101017E5302E17F5303E0010E016E8E
:101B00002DD0060EEA6E6B0EE96EF2CF7AF6F29EDB
:101B1000000E000167EC00F00A000900F550EE6EBF
:101B20000009FBE106017ABFF28E0701296BE80E7E
:101B3000286F060E2B6F6B0E2A6F0001DAEC05F092
:101B400002C07FF101C07EF101017E5302E17F53AB
:101B500003E0020E016E02D0000E016E00011200C1
:101B6000060EEA6EB30EE96EF2CFCBF6F29E0C0EC5
:101B7000016EF76A000E3BEC01F00A000900F5CF98
:101B8000EEFF012EFBD70601CBBFF28E4F0EBF6FCB
:101B90004B0EC06FC16B060E07011C6FB30E1B6F9F
:101BA000060E1E6FBF0E1D6F000126EC06F00152DF
:101BB0002BE0060EEA6EB30EE96EF2CFCBF6F29E84
:101BC000170E016EF76A000E77EC01F00A000900AB
:101BD000F5CFEEFF012EFBD70601CBBFF28ECA6B0D
:101BE000060E07011C6FB30E1B6F060E1E6FCA0E8A
:101BF0001D6F000126EC06F0015206E00101828310
:101C0000010E016E04D00001000E016E0101000101
:101C1000DDEF16F00601B76BB76BB351B75D1AE293
:101C2000036AB751B525016EB651032203C0B9F658
:101C3000B451B725036AE80FE96E000E0320EA6E7F
:101C4000EFCFBAF6B9C6EAFF01C0E9FFBAC6EFFFA7
:101C5000B72BE3D7036AB751B525E96EB651032018
:101C6000EA6EEF6A000112004F500F0DF3CFB5F688
:101C70000601B66B4F50030803E1000E016E52D00F
:101C80000701296B1D0E286FB4C62BF7B3C62AF7C0
:101C90000001DAEC05F002C051F001C050F05052E2
:101CA0003EE151523CE1036A0601B5511D0FE96E58
:101CB000000E0320EA6E3E0EEF6E010EB527036A9A
:101CC000B651B325E96EB4510320EA6EEF521AE023
:101CD000036AB5511D0F016E000E032203C0B8F652
:101CE000036AB651B325E96EB4510320EA6EEFCF13
:101CF000B9F6B8C6EAFF01C0E9FFB9C6EFFFB62BD7
:101D0000B52BDDD7036AB5511D0FE96E000E032018
:101D1000EA6EEF6A4F2A010E016E04D00001000E38
:101D2000016E0601000197EF13F0000E0601B35F8C
:101D3000B45BF00EB55B000EB65BBA6BB951BA5D21
:101D40003FE2F2CFBBF6F29EB3C6A9FFA69CA69EC9
:101D5000A680A850BBBFF28EBC6F036ABA51B725EC
:101D6000E96EB8510320EA6EEF50BC5D1FE0036AD4
:101D7000BA51B725E96EB8510320EA6EEFCFBBF632
:101D8000F250006EF29EB3C6A9FFBBC6A8FFA69C88
:101D9000A69EA6840F01550EA76EAA0EA76EA68258
:101DA000A6B2FED7A6940050F2120601010EB32788
:101DB000D8B0B42BD8B4B52BD8B4B62BBA2BBED769
:101DC00000011200016603D0026602D007D0022A89
:101DD00000C0EEFF012EFCD7022EFAD712004F6A88
:101DE000EA6A1D0EE96E006A026A320E016EEADFCF
:101DF000F9EF13F00601D86BD96B010EEA6EA10E54
:101E0000E96E006A026A280E016E0001DBDF4C0EEB
:101E10000101A16F4F0EA26F430EA36F410EA46F7D
:101E2000540EA56F450EA66F3A0EA76F200EA86F31
:101E3000080E0601D96F160ED86FD85120081AE384
:101E4000036AD951A10F016E010E032203C0DBF614
:101E5000036AD851520FE96E000E0320EA6EEFCFED
:101E6000DCF6DBC6EAFF01C0E9FFDCC6EFFFD92BD9
:101E7000D82BE3D70B0ED86FD85115081AE3036A95
:101E8000D951A10F016E010E032203C0DBF6036AD4
:101E9000D851520FE96E000E0320EA6EEFCFDCF648
:101EA000DBC6EAFF01C0E9FFDCC6EFFFD92BD82B68
:101EB000E3D7D951D92B036AA10FE96E010E032094
:101EC000EA6E200EEF6ED951D92B036AA10FE96E8D
:101ED000010E0320EA6E520EEF6ED951D92B036A20
:101EE000A10FE96E010E0320EA6E3D0EEF6E210E8A
:101EF000D86FD85123081AE3036AD951A10F016E94
:101F0000010E032203C0DBF6036AD851520FE96EBB
:101F1000000E0320EA6EEFCFDCF6DBC6EAFF01C05D
:101F2000E9FFDCC6EFFFD92BD82BE3D7D951D92B4A
:101F3000036AA10FE96E010E0320EA6E6D0EEF6ECB
:101F4000036AD951A10FE96E010E0320EA6EEF6A10
:101F5000000130EF11F0060EEA6EB50EE96EF2CF19
:101F6000D8F6F29E0C0E016EF76A000E3BEC01F003
:101F70000A000900F5CFEEFF012EFBD70601D8BFFE
:101F8000F28E4F0EC16F4B0EC26FC36B060E070170
:101F90001C6FB50E1B6F060E1E6FC10E1D6F00016C
:101FA00026EC06F00152D8B493D1060EEA6EB50EB7
:101FB000E96EF2CFD8F6F29E0D0E016EF76A000EB2
:101FC00090EC01F00A000900F5CFEEFF012EFBD7DF
:101FD0000601D8BFF28E4F0EC26F4B0EC36FC46B9B
:101FE000060E07011C6FB50E1B6F060E1E6FC20E8C
:101FF0001D6F000126EC06F00152D8B469D1060E1F
:10200000EA6EB50EE96EF2CFD8F6F29E200E016EA2
:10201000F76A000EA4EC01F00A000900F5CFEEFF0C
:10202000012EFBD70601D8BFF28E4F0ED56F4B0E97
:10203000D66FD76B060E07011C6FB50E1B6F060E11
:102040001E6FD50E1D6F000126EC06F00152D8B4AC
:102050003FD1060EEA6EB50EE96EF2CFD8F6F29ECB
:102060001D0E016EF76A000EC1EC01F00A000900B6
:10207000F5CFEEFF012EFBD70601D8BFF28E4F0E33
:10208000D26F4B0ED36FD46B060E07011C6FB50ECB
:102090001B6F060E1E6FD20E1D6F000126EC06F0A0
:1020A0000152D8B415D1060EEA6EB50EE96EF2CF24
:1020B000D8F6F29E0F0E016EF76A000EDDEC01F00D
:1020C0000A000900F5CFEEFF012EFBD70601D8BFAD
:1020D000F28E4F0EC46F4B0EC56FC66B060E070116
:1020E0001C6FB50E1B6F060E1E6FC40E1D6F000118
:1020F00026EC06F00152D8B4EBD0060EEA6EB50E0F
:10210000E96EF2CFD8F6F29E0F0E016EF76A000E5E
:10211000F2EC01F00A000900F5CFEEFF012EFBD72B
:102120000601D8BFF28E060EEA6EC40EE96EF2CF3B
:10213000DAF6F29E080E016EF76A000E000107EC57
:1021400002F00A000900F5CFEEFF012EFBD70601D1
:10215000DABFF28E060E07011C6FB50E1B6F060E5E
:102160001E6FC40E1D6F000126EC06F00152D8B49C
:10217000AFD0060EEA6EB50EE96EF2CFD8F6F29E3B
:10218000110E016EF76A000E18EC02F00A00090049
:10219000F5CFEEFF012EFBD70601D8BFF28E060E5B
:1021A000EA6EC60EE96EF2CFDAF6F29E0A0E016E04
:1021B000F76A000E00012EEC02F00A000900F5CFCC
:1021C000EEFF012EFBD70601DABFF28E060E0701E5
:1021D0001C6FB50E1B6F060E1E6FC60E1D6F000125
:1021E00026EC06F0015274E0060EEA6EB50EE96EBA
:1021F000F2CFD8F6F29E0E0E016EF76A000E40EC9A
:1022000002F00A000900F5CFEEFF012EFBD7060110
:10221000D8BFF28E060EEA6EC30EE96EF2CFDAF682
:10222000F29E070E016EF76A000E000154EC02F0F8
:102230000A000900F5CFEEFF012EFBD70601DABF39
:10224000F28E060E07011C6FB50E1B6F060E1E6F79
:10225000C30E1D6F000126EC06F0015239E0CAD50D
:10226000B4C6D9F6B3C6D8F6010E0601DB6FA10ECF
:10227000DA6F00019EEC06F0060EEA6EB50EE96E0E
:10228000F2CFD8F6F29E0F0E016EF76A000E65ECE3
:1022900002F00A000900F5CFEEFF012EFBD7060180
:1022A000D8BFF28E4F0EC46F4B0EC56FC66B060EB5
:1022B00007011C6FB50E1B6F060E1E6FC40E1D6F3F
:1022C000000126EC06F0015203E0010E016E29D058
:1022D000060EEA6EB50EE96EF2CFD8F6F29E0F0E3C
:1022E000016EF76A000E65EC02F00A000900F5CFF6
:1022F000EEFF012EFBD70601D8BFF28E4F0EC46F42
:102300004B0EC56FC66B060E07011C6FB50E1B6F1B
:10231000060E1E6FC40E1D6F000126EC06F0000EA7
:10232000016EDDEF16F00601CF6BD06B010ED16FA1
:10233000DA6AD96A060ED46FC70ED36F060EEA6E3C
:10234000CB0EE96ED4C6E2FFD3C6E1FFD1C6D2F60A
:10235000D890E550EE02F350CF23F450D023D22F83
:10236000F7D7CFC6DEFFD0C6CFF6D06BD8B0D02B14
:10237000D32BD8B4D42BD12BD1510508DFE10001E8
:1023800012000601BA6BB96BB86BB76BBB6BBF6B56
:10239000BE6BBD6B010EBC6FC06BB55361E0BB5132
:1023A000B625036AB325E96EB4510320EA6EEF50F7
:1023B0002E0854E0B507B5C6C0F6BF6BBE6BBD6B4B
:1023C000010EBC6FC0531AE0BFC6CAF6BEC6C9F63E
:1023D000BDC6C8F6BCC6C7F6CE6BCD6BCC6B0A0EBD
:1023E000CB6F0001A0DF03C0BFF602C0BEF601C084
:1023F000BDF600C0BCF60601C007E4D7BB51B62548
:10240000036AB325E96EB4510320EA6E300EEF5C27
:10241000C46BC36BC26BC16FEACFC6F6E9CFC5F61A
:10242000C4C6CAF6C3C6C9F6C2C6C8F6C76FBFC619
:10243000CEF6BEC6CDF6BDC6CCF6BCC6CBF6000108
:1024400072DFC6C6EAFFC5C6E9FF00500601B7271E
:102450000150B8230250B9230350BA23BB2B9DD798
:10246000B7C600F0B8C601F0B9C602F0BAC603F0AC
:1024700000011200E9500601B76F3B0EBE6F9A0EC5
:10248000BD6FCA0EBC6FBB6B0A0EB96FD882060E49
:10249000EA6EB30EE96EB6C6C3F6B5C6C2F6B4C6EA
:1024A000C1F6B3C6C0F6BEC6C7F6BDC6C6F6BCC644
:1024B000C5F6BBC6C4F6000103EC0AF00150005299
:1024C00013E10601B951010AD8A402D000010CD0D1
:1024D000B7510CE00F0BB95D01E010E2B7BF0ED0B1
:1024E000B7BD04D0200E03D00601B76B300E002616
:1024F00000C01AF700018EEC05F00601D892BEC6A6
:10250000C3F6BDC6C2F6BCC6C1F6BBC6C0F6C76B35
:10251000C66BC56B0A0EC46F000103EC0AF003C062
:10252000BEF602C0BDF601C0BCF600C0BBF6060197
:10253000B92FACD7000112000601B651016AB55D92
:1025400003E2B5C600F00CD0006A080EB76FB537CD
:102550000036B651005CD8B0006E0136B72FF7D701
:10256000000112000150B3C6B5F6640E0601B66F45
:102570000001E2DF00C0B3F60150300E08E10601B1
:10258000B4A310D0B4B70ED0B4B9200E04D0060155
:10259000B497B499B481012601C01AF700018EECFA
:1025A00005F00601B3C6B5F60A0EB66F0001C4DF2A
:1025B00000C0B3F60150300E08E10601B4B70BD0ED
:1025C000B4A109D0B4B9200E0001012601C01AF748
:1025D0008EEC05F00601300EB327B3C61AF70001E2
:1025E0008EEC05F053EF16F0F29CF29EF2BEFDD792
:1025F00006016B51010A000104E0030A06E0DDEF69
:1026000016F0B0EF0DF0DDEF16F0060EEA6E6C0E70
:10261000E96EF2CFB3F6F29E000E77EC00F00A00FE
:102620000900F550EE6E0009FBE10601B3BFF28E22
:102630000701296BE80E286F060E2B6F6C0E2A6FB0
:102640000001DAEC05F002C07FF101C07EF101016A
:102650007E5302E17F532FE00E0E0601B36F190E79
:10266000B46F060EB66F7B0EB56F00010AEC0EF06C
:10267000060EEA6E8F0EE96EF2CFB3F6F29E0C0EE6
:10268000016EF76A000E87EC00F00A000900F5CF32
:10269000EEFF012EFBD70601B3BFF28E060ED96FF7
:1026A0007B0ED86F060EDB6F8F0EDA6F00019EEC8B
:1026B00006F083D30101060EEA6E6C0EE96EF2CFCE
:1026C000B3F6F29E000E00019AEC00F00A00090039
:1026D000F550EE6E0009FBE10601B3BFF28E070173
:1026E000296BE80E286F060E2B6F6C0E2A6F000107
:1026F000DAEC05F002C07FF101C07EF101017E53EA
:1027000002E17F534BE00E0E0601B36F4B0EB46F28
:10271000060EB66F7B0EB56F00010AEC0EF0060ECA
:102720000601B46F7B0EB36F000134EF0EF00601AB
:10273000B66BF00EB56FB46B100EB36FB86B4F0E77
:10274000B76F010EB96F000195EC0EF00601B66B84
:10275000F00EB56FB46B110EB36FB86B1D0EB76F83
:10276000320EB96F000195EC0EF00E0E0601B36F3C
:10277000190EB46F060EB66F7B0EB56F00010AEC32
:102780000EF0060E0601D96F7B0ED86FDB6B1D0EA7
:10279000DA6F00019EEC06F010D30101060EEA6E1E
:1027A0006C0EE96EF2CFB3F6F29E000E0001ABECB8
:1027B00000F00A000900F550EE6E0009FBE1060189
:1027C000B3BFF28E0701296BE80E286F060E2B6F40
:1027D0006C0E2A6F0001DAEC05F002C07FF101C037
:1027E0007EF101017E5302E17F5350E00001EFEFE3
:1027F0000EF00601B66BF00EB56FB46B100EB36F32
:10280000B86B4F0EB76F010EB96F000195EC0EF06B
:102810000601B66BF00EB56FB46B110EB36FB86BEB
:102820001D0EB76F320EB96F000195EC0EF00E0E53
:102830000601B36F190EB46F060EB66F7B0EB56F3F
:1028400000010AEC0EF0060EEA6E9B0EE96EF2CF66
:10285000B3F6F29E0D0E016EF76A000EBCEC00F0AE
:102860000A000900F5CFEEFF012EFBD70601B3BF2A
:10287000F28E060ED96F7B0ED86F060EDB6F9B0EA5
:10288000DA6F00019EEC06F098D20101060EEA6EA6
:102890006C0EE96EF2CFB3F6F29E000E0001D0ECA2
:1028A00000F00A000900F550EE6E0009FBE1060198
:1028B000B3BFF28E0701296BE80E286F060E2B6F4F
:1028C0006C0E2A6F0001DAEC05F002C07FF101C046
:1028D0007EF101017E5302E17F5316E00E0E0601E8
:1028E000B36F190EB46F060EB66F7B0EB56F000195
:1028F0000AEC0EF0060E0601B46F7B0EB36F0001FA
:10290000ABEF0FF05AD20101060EEA6E6C0EE96EC3
:10291000F2CFB3F6F29E000E0001E3EC00F00A00E5
:102920000900F550EE6E0009FBE10601B3BFF28E1F
:102930000701296BE80E286F060E2B6F6C0E2A6FAD
:102940000001DAEC05F002C07FF101C07EF1010167
:102950007E5302E17F5368E00E0E0601B36F190E3D
:10296000B46F060EB66F7B0EB56F00010AEC0EF069
:102970007FC1B4F67EC1B3F6060E0601B56F070E31
:10298000B66F0001FEDC03C086F102C085F101C014
:1029900084F100C083F10601B66BF00EB56FB46B25
:1029A000080EB36F010EB86F830EB76F040EB96FC8
:1029B000000195EC0EF0EA6AE80EE96E006A026A20
:1029C000960E016EE2EC0EF001019C6BE80E9B6F1F
:1029D000940EF66E060EF76E120E0701176F0001C9
:1029E0009FEC05F0410EE96E86C1B6F685C1B5F6DD
:1029F00084C1B4F683C1B3F63DDDA90EF66E060EB2
:102A0000F76E030E0701176F00019FEC05F0060E2D
:102A10000601D96F7B0ED86FDB6BE80EDA6F000111
:102A20009EEC06F0CAD10101060EEA6E6C0EE96E4C
:102A3000F2CFB3F6F29E000E0001F4EC00F00A00B3
:102A40000900F550EE6E0009FBE10601B3BFF28EFE
:102A50000701296BE80E286F060E2B6F6C0E2A6F8C
:102A60000001DAEC05F002C07FF101C07EF1010146
:102A70007E5302E17F5367E00E0E0601B36F190E1D
:102A8000B46F060EB66F7B0EB56F00010AEC0EF048
:102A90007FC1B4F67EC1B3F6030E0601B56F070E13
:102AA000B66F00016EDC03C08AF102C089F101C07B
:102AB00088F100C087F10601B66BF00EB56FB46BFC
:102AC000B36B010EB86F870EB76F040EB96F0001BC
:102AD00095EC0EF0EA6AE80EE96E006A026A960E5C
:102AE000016EE2EC0EF001019C6BE80E9B6FAE0EE6
:102AF000F66E060EF76E160E0701176F00019FECBB
:102B000005F0410EE96E8AC1B6F689C1B5F688C1F5
:102B1000B4F687C1B3F6AEDCC70EF66E060EF76EDE
:102B2000040E0701176F00019FEC05F0060E060169
:102B3000D96F7B0ED86FDB6BE80EDA6F00019EEC6D
:102B400006F03BD10101060EEA6E6C0EE96EF2CF83
:102B5000B3F6F29E000E000105EC01F00A00090038
:102B6000F550EE6E0009FBE10601B3BFF28E0701DE
:102B7000296BE80E286F060E2B6F6C0E2A6F000172
:102B8000DAEC05F002C07FF101C07EF101017E5355
:102B900003E17F53D8B4A1D00E0E0601B36F190E16
:102BA000B46F060EB66F7B0EB56F00010AEC0EF027
:102BB000EA6AE80EE96E006A026A960E016EE2ECBD
:102BC0000EF001019C6BE80E9B6FCC0EF66E060EAC
:102BD000F76E160E0701176F00019FEC05F0410E0E
:102BE000E96E8AC1B6F689C1B5F688C1B4F687C167
:102BF000B3F640DCE50EF66E060EF76E190E070111
:102C0000176F00019FEC05F0410EE96E86C1B6F624
:102C100085C1B5F684C1B4F683C1B3F62BDC010ED1
:102C2000F66E070EF76E160E0701176F00019FEC88
:102C300005F0050EE96E8EC1B6F68DC1B5F68CC1F4
:102C4000B4F68BC1B3F60601B76B00014DEC0AF088
:102C50001C0EF66E070EF76E140E0701176F0001BB
:102C60009FEC05F0890EE96E92C1B6F691C1B5F6FA
:102C700090C1B4F68FC1B3F6020E0601B76F000122
:102C80004DEC0AF0350EF66E070EF76E140E0701C6
:102C9000176F00019FEC05F04FC0B3F61B0E060145
:102CA000B46F00015FD4060E0601D96F7B0ED86F9A
:102CB000DB6BE80EDA6F00019EEC06F04F520BE082
:102CC000060E0601D96F7B0ED86FDB6B1D0EDA6F17
:102CD00000019EEC06F071D00101060EEA6E6C0E4A
:102CE000E96EF2CFB3F6F29E000E000116EC01F091
:102CF0000A000900F550EE6E0009FBE10601B3BFC2
:102D0000F28E0701296BE80E286F060E2B6F6C0EF2
:102D10002A6F0001DAEC05F002C07FF101C07EF1FC
:102D200001017E5302E17F5347E00E0E0601B36FAF
:102D3000190EB46F060EB66F7B0EB56F00010AEC6C
:102D40000EF09AC196F199C195F198C194F197C18D
:102D500093F10601B66BF00EB56FB46B0C0EB36F4A
:102D6000010EB86F930EB76F040EB96F000195ECAA
:102D70000EF0060EEA6EA80EE96EF2CFB3F6F29EE2
:102D80000B0E016EF76A000E28EC01F00A00090034
:102D9000F5CFEEFF012EFBD70601B3BFF28E060E74
:102DA000D96F7B0ED86F060EDB6FA80EDA6F0001AD
:102DB0009EEC06F002D0010100011200C80E0701CE
:102DC000266F000179EC05F0EA6A520EE96E006A9E
:102DD000026A960E016EE2EC0EF0EA6AE80EE96E07
:102DE000006A026A960E016EE2EC0EF00101829119
:102DF000C00EF212F28A9D8A0001A9EF17F05CEF73
:102E00000BF086C16EF685C16DF684C16CF683C188
:102E10006BF6FCEF0CF003C0A1F602C0A0F601C0F7
:102E20009FF600C09EF68EC1A5F68DC1A4F68CC19A
:102E3000A3F68BC1A2F6A4EC09F018E30601242B3B
:102E400024511E0811E2246B256B2B81F29CF29E0B
:102E5000F2BEFDD7480EF66E090EF76E000119ECB2
:102E60000DF0C00EF212060117D000010601252B4D
:102E700025511E0811E2256B246B2B91F29CF29ECA
:102E8000F2BEFDD75E0EF66E090EF76E000119EC6C
:102E90000DF0C00EF2120601010182AB05D0829B3B
:102EA000000129EF0DF0010182A154D0F29CF29EA5
:102EB000F2BEFDD700014DEC0DF001C0CDF10101D6
:102EC000CD5306E0CDC16BF60001F4EC12F0010128
:102ED00082A33CD0F29CF29EF2BEFDD78293000109
:102EE0004DEC0DF001C0CDF1CDC16BF6F4EC12F05C
:102EF000640E0701266F000179EC05F0060EEA6EFC
:102F00005A0EE96EF2CF6BF6F29E0E0E016EF76A64
:102F1000000EA2EC02F00A000900F5CFEEFF012E30
:102F2000FBD706016BBFF28E4F0E686F4B0E696FB9
:102F30006A6B060E07011C6F5A0E1B6F060E1E6F82
:102F4000680E1D6F000126EC06F00101CD6B00013B
:102F500035D70101000177EF1AF00900F6CF9CF692
:102F6000F7CF9DF6F5CFA6F627EC0BF09CC6F6FF43
:102F70009DC6F7FF06019B2F01D002D00001EDD7BF
:102F800000011200E95006019E6F3B0EA56F9A0EDC
:102F9000A46FCA0EA36FA26B0A0EA06FD882060E92
:102FA000EA6E9A0EE96E9DC6C3F69CC6C2F69BC633
:102FB000C1F69AC6C0F6A5C6C7F6A4C6C6F6A3C68D
:102FC000C5F6A2C6C4F6000103EC0AF00150005297
:102FD00013E10601A051010AD8A402D000010CD0CF
:102FE0009E510CE00F0BA05D01E010E29EBF0ED0E1
:102FF0009EBD04D0200E03D006019E6B300E00262D
:1030000000C0A6F6000127EC0BF00601D892A5C679
:10301000C3F6A4C6C2F6A3C6C1F6A2C6C0F6C76B65
:10302000C66BC56B0A0EC46F000103EC0AF003C047
:10303000A5F602C0A4F601C0A3F600C0A2F60601E0
:10304000A02FACD70001120006019D6B9E6B9A5118
:103050004F5CD8A025D09A510F0DF350010F9D6FF2
:10306000010E9A250F0DF3509D5D1AE2036A9E51E1
:103070009B25016E9C51032203C0A0F6036A9D515B
:103080001D0FE96E000E0320EA6EEFCFA1F6A0C679
:10309000EAFF01C0E9FFA1C6EFFF9E2B9D2BE0D701
:1030A000000125EF19F001509BC6B5F6640E06012C
:1030B000B66F00019CEC12F000C09BF60150300E80
:1030C00008E106019CA310D09CB70ED09CB9200E3D
:1030D00004D006019C979C999C81012601C0A6F60C
:1030E000000127EC0BF006019BC6B5F60A0EB66F81
:1030F00000019CEC12F000C09BF60150300E08E17C
:1031000006019CB70BD09CA109D09CB9200E0001F0
:10311000012601C0A6F627EC0BF00601300E9B2716
:103120009BC6A6F6000127EC0BF012000601266BE9
:103130002BA1F1D04F52D8B4EED04F500308D8A0F5
:10314000EAD00101875309E1885307E1895305E17A
:103150008A53D8A402D00601DED0010E060127272B
:10316000D8B0282BD8B4292BD8B42A2BF29CF29EA5
:10317000F2BEFDD7740EF66E090EF76E140E9B6F3D
:103180000001EBDE410EE96E8AC19DF689C19CF615
:1031900088C19BF687C19AF6F5DE8B0EF66E090E96
:1031A000F76E180E06019B6F0001D7DE410EE96E27
:1031B0002AC69DF629C69CF628C69BF627C69AF60F
:1031C000E1DEA60EF66E090EF76E030E06019B6F8A
:1031D0000001C3DEC00EF212F29801018A5106010D
:1031E0002A5DD8A097D014E1010189510601295D1B
:1031F000D8A090D00DE1010188510601285DD8A02A
:1032000089D006E1010187510601275DD8A082D04F
:103210002A6B296B286B276B266B4F50265DD8B025
:1032200079D0060EEA6E2C0EE96E006A026A140E60
:10323000016E0001E2EC0EF026C69AF6060E0601BB
:103240009C6F2C0E9B6F0001FFD6F29CF29EF2BE8B
:10325000FDD7010E060126259A6FAA0EF66E090EFD
:10326000F76E110E9B6F000178DE9AC69BF61B0E5F
:1032700006019C6F000117DF2F0E0601A66F0001EB
:1032800027EC0BF04FC09BF61B0E06019C6F000154
:103290000ADFC00EF66E090EF76E030E06019B6F75
:1032A00000015BDE060EEA6E2C0EE96E4AEC0BF0B6
:1032B0000D0E0601A66F000127EC0BF00A0E0601A9
:1032C000A66F000127EC0BF0C00EF212060EEA6E9C
:1032D0005A0EE96EF2CF9AF6F29E400E016EF76A30
:1032E000000EB6EC02F00A000900F5CFEEFF012E49
:1032F000FBD706019ABFF28E060ED96F2C0ED86F3F
:10330000060EDB6F5A0EDA6F00019EEC06F0060126
:10331000262B83D7F28800017DEF1AF0F86AD09E41
:10332000078E166AB886220EAF6E000EB06EA60E1D
:10333000AC6E900EAB6E93948A8401017F6B7E6BB2
:10334000860E816FA00E806F9C6B9B6BA06B6A0ECC
:103350009F6FCF0E9E6FC00E9D6F82918295829758
:10336000CA6BC96BCC6BCB6BCD6B82938299829B02
:10337000829D03015F6B5E6B606B616B6269636969
:103380000101829F0601236B226B216B206B0101DF
:103390008E6B8D6B8C6B8B6B926B916B906B8F6B61
:1033A000966B956B946B936B9A6B996B986B976B11
:1033B000866B856B0B0E846FB80E836F4F6A0601A8
:1033C000246B256B266B01018A6B896B886B010E60
:1033D000876F06012A6B296B286B276F2B91C150D1
:1033E000C00B0F09C16E070EB46E176A186A0E0E75
:1033F000926E090E936E800E946E000E956EC15003
:10340000C00B0B09C16EC050C00BC06EC08EC28015
:10341000040E016EC250C30B0110C26ED190C30ED8
:10342000D56ED76A060ED66EF19C8C90F28A9D8A74
:10343000C00EF212000120EF05F08C94080E060178
:103440005A6FFA0E0701266F000179EC05F00601AC
:103450005A2FF7D78C843C0E5A6FFA0E0701266F4D
:10346000000179EC05F006015A2FF7D7060EEA6E37
:10347000400EE96EF2CF5AF6F29E0D0E016EF76A1B
:10348000000E00017AEC02F00A000900F5CFEEFF11
:10349000012EFBD706015ABFF28E060EEA6E4D0EC4
:1034A000E96EF2CF5CF6F29E0D0E016EF76A000E29
:1034B00000018EEC02F00A000900F5CFEEFF012EAC
:1034C000FBD706015CBFF28E060ED96F400ED86F97
:1034D000060EDB6F4D0EDA6F00019EEC06F0F288EF
:1034E000F19C010182A504D08295000188D40101DC
:1034F00082A704D08297000119D60101F3D70300F7
:0200000400F00A
:1000000000000000000000000000000000000000F0
:1000100000000000000000000000000000000000E0
:1000200000000000000000000000000000000000D0
:1000300000000000000000000000000000000000C0
:03004000000000BD
:020000040030CA
:0E0000003BCE3E1E0087A1000FC00FE00F4058
:00000001FF
;PIC18F4550
;CRC=E4EC  CREATED="15-nov-18 19:50"
