:100000004CEF0AF0F0EF0AF0046ED8CF05F0E0CF25
:1000100006F00001E9CF0CF0EACF07F0E1CF08F0DD
:10002000E2CF09F0D9CF0AF0DACF0BF0F3CF12F01C
:10003000F4CF13F0FACF14F000C00EF001C00FF0AF
:1000400002C010F003C011F09DAA2AEF00F09EBA82
:1000500063EF02F0F2AA30EF00F0F2B4C7EF02F063
:100060000EC000F00FC001F010C002F011C003F08C
:100070000CC0E9FF07C0EAFF078E08C0E1FF09C016
:10008000E2FF0AC0D9FF0BC0DAFF12C0F3FF13C0B2
:10009000F4FF14C0FAFF045006C0E0FF05C0D8FF0B
:1000A0001000F2CF0DF0F29EF76ABC0FF66E000E54
:1000B000F7220900F5500DBEF28E12002B434D546D
:1000C0004900F2CF0DF0F29EF76ADC0FF66E000EDB
:1000D000F7220900F5500DBEF28E12002B434D475A
:1000E0004C00F2CF0DF0F29EF76AFC0FF66E000E98
:1000F000F7220900F5500DBEF28E12004F4954410F
:100100004900F2CF0DF0F29EF76A1C0FF66E010E59
:10011000F7220900F5500DBEF28E120048454152FB
:100120005442454154282900F2CF0DF0F29EF76A5F
:10013000420FF66E010EF7220900F5500DBEF28E49
:1001400012002B4E554D41444400F2CF0DF0F29E6B
:10015000F76A640FF66E010EF7220900F5500DBE26
:10016000F28E12002B4E554D44454C00F2CF0DF04F
:10017000F29EF76A860FF66E010EF7220900F5501F
:100180000DBEF28E12004F4B20434C454152204190
:100190004C4C0000F2CF0DF0F29EF76AAE0FF66EF7
:1001A000010EF7220900F5500DBEF28E12002B470A
:1001B000534D4C4F434154450000F2CF0DF0F29E99
:1001C000F76AD40FF66E010EF7220900F5500DBE46
:1001D000F28E120041542B434D47463D310D0A002B
:1001E000F2CF0DF0F29EF76AFA0FF66E010EF722CB
:1001F0000900F5500DBEF28E120041542B43534DB1
:10020000503D31372C3235352C302C300D0A000062
:10021000F2CF0DF0F29EF76A2A0FF66E020EF72269
:100220000900F5500DBEF28E12002B434D47533A94
:100230000000F2CF0DF0F29EF76A4C0FF66E020E40
:10024000F7220900F5500DBEF28E120041542B43E7
:100250004D474C3D2252454320554E524541442284
:100260000D0A0000F2CF0DF0F29EF76A7E0FF66ED7
:10027000020EF7220900F5500DBEF28E1200415415
:100280002B43474154543D310D0A0000F2CF0DF08D
:10029000F29EF76AA60FF66E020EF7220900F550DD
:1002A0000DBEF28E120041542B53415042523D3349
:1002B0002C312C22434F4E54595045222C2247506A
:1002C0005253220D0A00F2CF0DF0F29EF76AE00FB2
:1002D000F66E020EF7220900F5500DBEF28E1200E6
:1002E00041542B53415042523D332C312C2241502A
:1002F0004E222C22434D4E4554220D0A0000F2CFCF
:100300000DF0F29EF76A180FF66E030EF722090041
:10031000F5500DBEF28E120041542B534150425203
:100320003D312C310D0A0000F2CF0DF0F29EF76A3C
:10033000420FF66E030EF7220900F5500DBEF28E45
:10034000120041542B53415042523D322C310D0A80
:100350000000F2CF0DF0F29EF76A6C0FF66E030EFE
:10036000F7220900F5500DBEF28E12002B534150BA
:1003700042523A00F2CF0DF0F29EF76A8E0FF66EFF
:10038000030EF7220900F5500DBEF28E1200415403
:100390002B434C42534346473D302C310D0A00005D
:1003A000F2CF0DF0F29EF76ABA0FF66E030EF72247
:1003B0000900F5500DBEF28E12002B434C42534300
:1003C00046473A00F2CF0DF0F29EF76ADE0FF66E66
:1003D000030EF7220900F5500DBEF28E12004154B3
:1003E0002B434C42533D312C310D0A00F2CF0DF01E
:1003F000F29EF76A060FF66E040EF7220900F5501A
:100400000DBEF28E12002B434C42533A0000F2CF45
:100410000DF0F29EF76A280FF66E040EF72209001F
:10042000F5500DBEF28E120041542B5341504252F2
:100430003D302C310D0A0000F2CF0DF0F29EF76A2C
:10044000520FF66E040EF7220900F5500DBEF28E23
:100450001200303331393935383232373339000010
:10046000F2CF0DF0F29EF76A7A0FF66E040EF722C5
:100470000900F5500DBEF28E1200494E4943494124
:100480004E444F2E2E2E0000F2CF0DF0F29EF76A52
:10049000A20FF66E040EF7220900F5500DBEF28E83
:1004A000120041542B434D47443D312C310D0A007D
:1004B0009EAAFED7ABCF16F0AECF01F016A202D0A7
:1004C000AB98AB881200010E02019C6F9EAA53D01C
:1004D000010182A102D002014ED00001E9DF01C07A
:1004E0009DF202019D513E0809E09D512B0806E056
:1004F0009D510A0803E09D510D083DE19DC252F057
:100500009C51930829E30101805305E18153D8A44C
:1005100002D0020121D09EAA19D00001C9DF01C07A
:100520009DF2036A02019C51520FE96E000E0320F6
:10053000EA6E9DC2EFFF9D513B0802E19C2B0CD05F
:100540009C2B860E0101816FA00E806F8051D8B464
:10055000810780070201D4D701018281860E816F55
:10056000A00E806F036A02019C51520FE96E000ECB
:100570000320EA6EEF6A9E9A000130EF00F04154CA
:100580002B434D47533D222573220D0A0000D76AA5
:10059000060ED66E0101B12BD8B4B22BB151E808CA
:1005A00012E1B25103080FE1B32BD8B4B42BB26BF4
:1005B000B16B82858972B3513C0805E1B45303E104
:1005C000B46BB36B8287F294000130EF00F0020E3F
:1005D000EA6E910EE96EEF500EE0050E016E006AB4
:1005E000002EFED7012EFBD72E0E006E002EFED75A
:1005F00000D0EF2EF2D71200B0C1EAFFAFC1E9FF81
:10060000020185C2EFFFE92AD8B4EA2AEF6A0101A4
:10061000AF2BD8B4B02B000112000900F6CF83F243
:10062000F7CF84F2F5CF85F2E7DF83C2F6FF84C20D
:10063000F7FF0201822F01D002D00001EED70001A6
:100640001200EF520FE0EACF83F2E9CF82F2EFCF50
:1006500085F2D2DF83C2EAFF82C2E9FFE92AD8B479
:10066000EA2AEFD71FEF04F0EF5210E0EACF92F240
:10067000E9CF91F2EF509EA8FED7AD6E92C2EAFF8D
:1006800091C2E9FFE92AD8B4EA2AEED7AAEF03F02B
:1006900094C203F0020193C2E9FF94C2EAFFEF5251
:1006A00039E094C298F293C297F296C29AF295C238
:1006B00099F29AC203F099C2E9FF9AC2EAFFEF5297
:1006C00016E097C2E9FF98C2EAFFEFCF9BF29AC209
:1006D00003F099C2E9FF9AC2EAFFEF509B5D07E180
:1006E000972BD8B4982B992BD8B49A2BE2D79AC2CF
:1006F00003F099C2E9FF03C0EAFFEF5205E193C29C
:1007000001F094C202F009D0932BD8B4942B0001CD
:10071000BFD70201000E016E026E000112009EA8FA
:10072000FED7AD6ECFEF03F0020E02018A6FF29A90
:100730009D8AC00EF2120101866B6A0E856FCF0E84
:10074000846FC00E836F829187C2EAFF86C2E9FF81
:1007500000018AD72B0E02018B6F430E8C6F4D0E5A
:100760008D6F470E8E6F530E8F6F906B89C294F210
:1007700088C293F2020E966F8B0E956F000188DF90
:1007800002C094F201C093F20201935302E1945328
:1007900007E0960E916F00011ADF1A0EC0D7020112
:1007A000010182B110D0FF0E8327D8A08427D8A0E2
:1007B0008527D8A086278353F4E18453F2E185533B
:1007C000F0E18653EEE182A11BD082910201946B8D
:1007D000520E936F89C296F288C295F2000158DFDB
:1007E00002C07FF101C07EF101017E5302E17F531F
:1007F00007E09D8AF28AC00EF212010E016E0AD045
:1008000002018A2F98D7C00EF2129D8AF28A000E3A
:10081000016E010100011200020E0101B06F470ECE
:10082000AF6F7E0EF66E050EF76E090E0201826F37
:100830000001F3DE44C2EAFF43C2E9FF02D7890E9A
:10084000F66E050EF76E030E0201826F0001E5DE03
:10085000020EEA6E6A0EE96EF2CF82F2F29E0C0E82
:10086000016EF76A000EA9DC0A000900F5CFEEFF61
:10087000012EFBD7020182BFF28E4F0E766F4B0E18
:10088000776F786B020E876F6A0E866F020E896F24
:10089000760E886F000148DF01525AE0020EEA6EC0
:1008A0006A0EE96EF2CF82F2F29E150E016EF76AC1
:1008B000000E96DC0A000900F5CFEEFF012EFBD7F3
:1008C000020182BFF28E4F0E7F6F4B0E806F816BE5
:1008D000020E876F6A0E866F020E896F7F0E886F19
:1008E000000122DF015234E03E0E02016A6F6B6BA1
:1008F000020E876F470E866F020E896F6A0E886F31
:10090000000112DF015224E0020EEA6E6A0EE96E67
:10091000F2CF82F2F29E070E016EF76A000E78DCCB
:100920000A000900F5CFEEFF012EFBD7020182BFBE
:10093000F28E46C287F245C286F2020E896F6A0EB7
:10094000886F0001F1DE015203E0010E016E02D05A
:10095000000E016E1200EA6AE80EE96EE26A520EBB
:10096000E16EE752E6CFEEFFFCE1010EEA6EE10E2A
:10097000E96EF2CFF0F1F29E000E51EC00F00A00A9
:100980000900F550EE6E0009FBE10101F0BFF28EA7
:100990000201946BE80E936F010E966FE10E956F56
:1009A000000176DE02C07FF101C07EF101017E53BD
:1009B00002E17F5303E0010E016E2CD0010EEA6EBE
:1009C000E10EE96EF2CFF0F1F29E000E000161EC53
:1009D00000F00A000900F550EE6E0009FBE101018C
:1009E000F0BFF28E0201946BE80E936F010E966FCA
:1009F000E10E956F00014CDE02C07FF101C07EF177
:100A000001017E5302E17F5303E0020E016E02D02A
:100A1000000E016E00011200020EEA6E1E0EE96E5B
:100A2000F2CF36F2F29E0C0E016EF76A000EDDEC8C
:100A300000F00A000900F5CFEEFF012EFBD70201FE
:100A400036BFF28E4F0E2A6F4B0E2B6F2C6B020EA1
:100A5000876F1E0E866F020E896F2A0E886F000147
:100A600063DE015229E0020EEA6E1E0EE96EF2CF3D
:100A700036F2F29E170E016EF76A000E19EC01F0C5
:100A80000A000900F5CFEEFF012EFBD7020136BFA9
:100A9000F28E356B020E876F1E0E866F020E896F07
:100AA000350E886F000140DE015206E001018283AD
:100AB000010E016E04D00001000E016E0101000163
:100AC000D4EF09F00201226B226B1E51225D1AE263
:100AD000036A22512025016E2151032203C024F212
:100AE0001F512225036AE80FE96E000E0320EA6E0B
:100AF000EFCF25F224C2EAFF01C0E9FF25C2EFFFD4
:100B0000222BE3D7036A22512025E96E21510320CD
:100B1000EA6EEF6A000112004F500F0DF3CF20F282
:100B20000201216B4F50030803E1000E016E50D00B
:100B3000946B1D0E936F1FC296F21EC295F20001B8
:100B4000A7DD02C051F001C050F050523EE15152B9
:100B50003CE1036A020120511D0FE96E000E0320E3
:100B6000EA6E3E0EEF6E010E2027036A21511E250C
:100B7000E96E1F510320EA6EEF521AE0036A20511A
:100B80001D0F016E000E032203C023F2036A2151E0
:100B90001E25E96E1F510320EA6EEFCF24F223C217
:100BA000EAFF01C0E9FF24C2EFFF212B202BDDD794
:100BB000036A20511D0FE96E000E0320EA6EEF6AF2
:100BC0004F2A010E016E04D00001000E016E0201D9
:100BD000000127EF09F0016603D0026602D007D0BA
:100BE000022A00C0EEFF012EFCD7022EFAD7120017
:100BF0004F6AEA6A1D0EE96E006A026A320E016EE1
:100C0000EADF68EF09F00201436B446B010EEA6E04
:100C1000870EE96E006A026A280E016E0001DBDFB2
:100C20004C0E0101876F4F0E886F430E896F410E86
:100C30008A6F540E8B6F450E8C6F3A0E8D6F200E9F
:100C40008E6F080E0201446F160E436F4351200849
:100C50001AE3036A4451870F016E010E032203C099
:100C600046F2036A4351520FE96E000E0320EA6E0A
:100C7000EFCF47F246C2EAFF01C0E9FF47C2EFFFEC
:100C8000442B432BE3D70B0E436F435115081AE354
:100C9000036A4451870F016E010E032203C046F21E
:100CA000036A4351520FE96E000E0320EA6EEFCF44
:100CB00047F246C2EAFF01C0E9FF47C2EFFF442BFB
:100CC000432BE3D74451442B036A870FE96E010E8F
:100CD0000320EA6E200EEF6E4451442B036A870F07
:100CE000E96E010E0320EA6E520EEF6E4451442B62
:100CF000036A870FE96E010E0320EA6E3D0EEF6E68
:100D0000210E436F435122081AE3036A4451870FAF
:100D1000016E010E032203C046F2036A4351520FD3
:100D2000E96E000E0320EA6EEFCF47F246C2EAFFFB
:100D300001C0E9FF47C2EFFF442B432BE3D74451E7
:100D4000442B036A870FE96E010E0320EA6E6D0ED5
:100D5000EF6E036A4451870FE96E010E0320EA6EBD
:100D6000EF6A00012BEF08F0020EEA6E200EE96E2A
:100D7000F2CF43F2F29E0C0E016EF76A000EDDEC2C
:100D800000F00A000900F5CFEEFF012EFBD70201AB
:100D900043BFF28E4F0E2C6F4B0E2D6F2E6B020E3B
:100DA000876F200E866F020E896F2C0E886F0001F0
:100DB000BBDC0152D8B486D1020EEA6E200EE96E79
:100DC000F2CF43F2F29E0D0E016EF76A000E32EC86
:100DD00001F00A000900F5CFEEFF012EFBD702015A
:100DE00043BFF28E4F0E2D6F4B0E2E6F2F6B020EE8
:100DF000876F200E866F020E896F2D0E886F00019F
:100E000093DC0152D8B45ED1020EEA6E200EE96E78
:100E1000F2CF43F2F29E016EF76A000E46EC01F04B
:100E20000A000900F5CFEEFF012EFBD7020143BFF8
:100E3000F28E4F0E406F4B0E416F426B020E876F6A
:100E4000200E866F020E896F400E886F00016CDCE9
:100E50000152D8B437D1020EEA6E200EE96EF2CFFD
:100E600043F2F29E1D0E016EF76A000E63EC01F074
:100E70000A000900F5CFEEFF012EFBD7020143BFA8
:100E8000F28E4F0E3D6F4B0E3E6F3F6B020E876F23
:100E9000200E866F020E896F3D0E886F000144DCC4
:100EA0000152D8B40FD1020EEA6E200EE96EF2CFD5
:100EB00043F2F29E0F0E016EF76A000E7FEC01F016
:100EC0000A000900F5CFEEFF012EFBD7020143BF58
:100ED000F28E4F0E2F6F4B0E306F316B020E876FFD
:100EE000200E866F020E896F2F0E886F00011CDCAA
:100EF0000152D8B4E7D0020EEA6E200EE96EF2CFAE
:100F000043F2F29E0F0E016EF76A000E94EC01F0B0
:100F10000A000900F5CFEEFF012EFBD7020143BF07
:100F2000F28E020EEA6E2F0EE96EF2CF45F2F29EBD
:100F3000080E016EF76A000E0001A9EC01F00A002C
:100F40000900F5CFEEFF012EFBD7020145BFF28E5F
:100F5000020E876F200E866F020E896F2F0E886F2C
:100F6000000194EC03F00152D8B4ACD0020EEA6E4A
:100F7000200EE96EF2CF43F2F29E110E016EF76A77
:100F8000000EBAEC01F00A000900F5CFEEFF012EC9
:100F9000FBD7020143BFF28E020EEA6E310EE96EFC
:100FA000F2CF45F2F29E0A0E016EF76A000E0001C2
:100FB000D0EC01F00A000900F5CFEEFF012EFBD7BF
:100FC000020145BFF28E020E876F200E866F020E61
:100FD000896F310E886F000194EC03F0015272E0CA
:100FE000020EEA6E200EE96EF2CF43F2F29E0E0E72
:100FF000016EF76A000EE2EC01F00A000900F5CF7D
:10100000EEFF012EFBD7020143BFF28E020EEA6E05
:101010002E0EE96EF2CF45F2F29E070E016EF76AD0
:10102000000E0001F6EC01F00A000900F5CFEEFF1A
:10103000012EFBD7020145BFF28E020E876F200EF4
:10104000866F020E896F2E0E886F000194EC03F0FC
:10105000015238E0D8D51FC244F21EC243F2010E3D
:101060000201466F870E456F00010CEC04F0020E82
:10107000EA6E200EE96EF2CF43F2F29E0F0E016E81
:10108000F76A000E07EC02F00A000900F5CFEEFF48
:10109000012EFBD7020143BFF28E4F0E2F6F4B0E76
:1010A000306F316B020E876F200E866F020E896FD4
:1010B0002F0E886F000194EC03F0015203E0010E43
:1010C000016E28D0020EEA6E200EE96EF2CF43F2D6
:1010D000F29E0F0E016EF76A000E07EC02F00A0096
:1010E0000900F5CFEEFF012EFBD7020143BFF28EC0
:1010F0004F0E2F6F4B0E306F316B020E876F200E2D
:10110000866F020E896F2F0E886F000194EC03F03A
:10111000000E016ED4EF09F0F29CF29EF2BEFDD7F4
:101120000101E151010A000103E0030A03E03CD19F
:1011300073D43AD1010EEA6EE20EE96EF2CF1EF2DE
:10114000F29E000E71EC00F00A000900F550EE6E00
:101150000009FBE102011EBFF28E946BE80E936F53
:10116000010E966FE20E956F000148EC03F002C08D
:101170007FF101C07EF101017E5302E17F532EE039
:101180000E0E02011E6F190E1F6F010E216FF10E60
:10119000206F000197DC020EEA6E050EE96EF2CFB9
:1011A0001EF2F29E0C0E016EF76A000E81EC00F04A
:1011B0000A000900F5CFEEFF012EFBD702011EBF8A
:1011C000F28E010E446FF10E436F020E466F050E54
:1011D000456F00010CEC04F0E7D00101010EEA6E4E
:1011E000E20EE96EF2CF1EF2F29E000E000194ECC8
:1011F00000F00A000900F550EE6E0009FBE1020163
:101200001EBFF28E946BE80E936F010E966FE20E86
:10121000956F000148EC03F002C07FF101C07EF140
:1012200001017E5302E17F532AE00E0E02011E6F80
:101230004B0E1F6F010E216FF10E206F000142DC7B
:10124000010E02011F6FF10E1E6F000165D40E0E1C
:1012500002011E6F190E1F6F010E216FF10E206F1C
:10126000000130DC010E0201446FF10E436F466B4A
:101270001D0E456F00010CEC04F096D00101010E2B
:10128000EA6EE20EE96EF2CF1EF2F29E000E00014F
:10129000A5EC00F00A000900F550EE6E0009FBE134
:1012A00002011EBFF28E946BE80E936F010E966FD3
:1012B000E20E956F000148EC03F002C07FF101C01F
:1012C0007EF101017E5302E17F5331E0000190D4B1
:1012D0000E0E02011E6F190E1F6F010E216FF10E0F
:1012E000206F000162EC05F0020EEA6E110EE96E4D
:1012F000F2CF1EF2F29E0D0E016EF76A000EB6ECF2
:1013000000F00A000900F5CFEEFF012EFBD7020125
:101310001EBFF28E010E446FF10E436F020E466F38
:10132000110E456F00010CEC04F03ED00101010EDE
:10133000EA6EE20EE96EF2CF1EF2F29E000E00019E
:10134000CAEC00F00A000900F550EE6E0009FBE15E
:1013500002011EBFF28E946BE80E936F010E966F22
:10136000E20E956F000148EC03F002C07FF101C06E
:101370007EF101017E5302E17F5315E00E0E020162
:101380001E6F190E1F6F010E216FF10E206F0001ED
:1013900062EC05F0010E02011F6FF10E1E6F0001DD
:1013A000E3D402D0010100011200C80E0201916FC6
:1013B0000001E7EC02F0EA6A520EE96E006A026A86
:1013C000960E016E08DCEA6AE80EE96E006A026AAF
:1013D000960E016E00DC01018291C00EF212F28ABB
:1013E0009D8A000148EF0AF0010182A152D0F29CCF
:1013F000F29EF2BEFDD70001ABEC04F001C0B5F1E6
:101400000101B55305E0B5C1E1F1000185DE01013F
:1014100082A33BD0F29CF29EF2BEFDD782930001E4
:10142000ABEC04F001C0B5F1B5C1E1F175DE640EBD
:101430000201916F0001E7EC02F0010EEA6ED00E9E
:10144000E96EF2CFE1F1F29E0E0E016EF76A000E28
:1014500044EC02F00A000900F5CFEEFF012EFBD7A5
:101460000101E1BFF28E4F0EDE6F4B0EDF6FE06BBE
:10147000010E0201876FD00E866F010E896FDE0E9E
:10148000886F000194EC03F00101B56B00018DD76A
:1014900001010001E9EF0AF0F86AD09E078E166A92
:1014A000B886220EAF6E000EB06EA60EAC6E900E19
:1014B000AB6E4F6A01017F6B7E6B860E816FA00E53
:1014C000806F866B6A0E856FCF0E846FC00E836F40
:1014D000B06BAF6B829182958297B26BB16BB46B3C
:1014E000B36BB56B8293C150C00B0F09C16E070E71
:1014F000B46E176A186A000E926E936E800E946E28
:10150000000E956EC150C00B0F09C16EC290D190F4
:10151000C30ED56ED76A060ED66EF28A9D8AC00EAD
:10152000F2128B8A080ED06FFA0E0201916F000141
:10153000E7EC02F00101D02FF7D78B9A140ED06F91
:10154000FA0E0201916F0001E7EC02F00101D02FC9
:10155000F7D7010EEA6EB60EE96EF2CFD0F1F29E29
:101560000D0E016EF76A000E00011CEC02F00A007D
:101570000900F5CFEEFF012EFBD70101D0BFF28E9F
:10158000010EEA6EC30EE96EF2CFD2F1F29E0D0E9D
:10159000016EF76A000E000130EC02F00A0009004B
:1015A000F5CFEEFF012EFBD70101D2BFF28E010E67
:1015B0000201446FB60E436F010E466FC30E456FB6
:1015C00000010CEC04F0010182A504D08295000119
:1015D0000BD7010182A705D08297000102EF00F02E
:0615E0000101F2D7030037
:020000040030CA
:0E0000003BCE3E1E0087A1000FC00FE00F4058
:00000001FF
;PIC18F4550
;CRC=2C82  CREATED="26-out-18 21:41"
