:100000007DEF06F020EF07F0046ED8CF05F0E0CFCB
:1000100006F00001E9CF0CF0EACF07F0E1CF08F0DD
:10002000E2CF09F0D9CF0AF0DACF0BF0F3CF12F01C
:10003000F4CF13F0FACF14F000C00EF001C00FF0AF
:1000400002C010F003C011F09DAA2AEF00F09EBA82
:1000500066EF01F0F2AA30EF00F0F2B4CAEF01F05F
:100060000EC000F00FC001F010C002F011C003F08C
:100070000CC0E9FF07C0EAFF078E08C0E1FF09C016
:10008000E2FF0AC0D9FF0BC0DAFF12C0F3FF13C0B2
:10009000F4FF14C0FAFF045006C0E0FF05C0D8FF0B
:1000A0001000F2CF0DF0F29EF76ABC0FF66E000E54
:1000B000F7220900F5500DBEF28E12002B434D546D
:1000C0004900F2CF0DF0F29EF76ADC0FF66E000EDB
:1000D000F7220900F5500DBEF28E12002B434D475A
:1000E0004C00F2CF0DF0F29EF76AFC0FF66E000E98
:1000F000F7220900F5500DBEF28E12004F4954410F
:100100004900F2CF0DF0F29EF76A1C0FF66E010E59
:10011000F7220900F5500DBEF28E120048454152FB
:100120005442454154282900F2CF0DF0F29EF76A5F
:10013000420FF66E010EF7220900F5500DBEF28E49
:1001400012002B4E554D41444400F2CF0DF0F29E6B
:10015000F76A640FF66E010EF7220900F5500DBE26
:10016000F28E12002B4E554D44454C00F2CF0DF04F
:10017000F29EF76A860FF66E010EF7220900F5501F
:100180000DBEF28E12004F4B20434C454152204190
:100190004C4C0000F2CF0DF0F29EF76AAE0FF66EF7
:1001A000010EF7220900F5500DBEF28E12004154E7
:1001B0002B434D47463D310D0A00F2CF0DF0F29E24
:1001C000F76AD40FF66E010EF7220900F5500DBE46
:1001D000F28E120041542B43534D503D31372C3297
:1001E00035352C302C300D0A0000F2CF0DF0F29E88
:1001F000F76A040FF66E020EF7220900F5500DBEE5
:10020000F28E12002B434D47533A0000F2CF0DF00F
:10021000F29EF76A260FF66E020EF7220900F550DD
:100220000DBEF28E120041542B434D474C3D2252DD
:10023000454320554E52454144220D0A0000F2CF5D
:100240000DF0F29EF76A580FF66E020EF7220900C3
:10025000F5500DBEF28E1200303331393935383257
:10026000323733390000F2CF0DF0F29EF76A800F7B
:10027000F66E020EF7220900F5500DBEF28E120046
:10028000494E494349414E444F2E2E2E0000F2CF95
:100290000DF0F29EF76AA80FF66E020EF722090023
:1002A000F5500DBEF28E120041542B434D47443D94
:1002B000312C310D0A009EAAFED7ABCF16F0AECF7F
:1002C00001F016A202D0AB98AB881200010E020119
:1002D000516F9EAA53D0010182A102D002014ED0DB
:1002E0000001E9DF01C052F2020152513E0809E06B
:1002F00052512B0806E052510A0803E052510D08F2
:100300003DE152C252F05151930829E3010180535B
:1003100005E18153D8A402D0020121D09EAA19D0B0
:100320000001C9DF01C052F2036A02015151520FAC
:10033000E96E000E0320EA6E52C2EFFF52513B08F5
:1003400002E1512B0CD0512B860E0101816FA00EC2
:10035000806F8051D8B4810780070201D4D7010192
:100360008281860E816FA00E806F036A0201515157
:10037000520FE96E000E0320EA6EEF6A9E9A0001AA
:1003800030EF00F041542B434D47533D222573225B
:100390000D0A0000D76A060ED66E0101892BD8B46B
:1003A0008A2B8951E80812E18A5103080FE18B2B4F
:1003B000D8B48C2B8A6B896B828589728B513C08EF
:1003C00005E18C5303E18C6B8B6B8287F294000107
:1003D00030EF00F0020EEA6E460EE96EEF500EE0CE
:1003E000050E016E006A002EFED7012EFBD72E0EE1
:1003F000006E002EFED700D0EF2EF2D7120088C17B
:10040000EAFF87C1E9FF02013AC2EFFFE92AD8B447
:10041000EA2AEF6A0101872BD8B4882B0001120069
:100420000900F6CF38F2F7CF39F2F5CF3AF2E7DF2D
:1004300038C2F6FF39C2F7FF0201372F01D002D0D0
:100440000001EED700011200EF520FE0EACF38F2C0
:10045000E9CF37F2EFCF3AF2D2DF38C2EAFF37C244
:10046000E9FFE92AD8B4EA2AEFD722EF03F0EF52E6
:1004700010E0EACF47F2E9CF46F2EF509EA8FED750
:10048000AD6E47C2EAFF46C2E9FFE92AD8B4EA2ABC
:10049000EED7ADEF02F049C203F0020148C2E9FF16
:1004A00049C2EAFFEF5239E049C24DF248C24CF26C
:1004B0004BC24FF24AC24EF24FC203F04EC2E9FFA6
:1004C0004FC2EAFFEF5216E04CC2E9FF4DC2EAFF0D
:1004D000EFCF50F24FC203F04EC2E9FF4FC2EAFF26
:1004E000EF50505D07E14C2BD8B44D2B4E2BD8B4B8
:1004F0004F2BE2D74FC203F04EC2E9FF03C0EAFF21
:10050000EF5205E148C201F049C202F009D0482B80
:10051000D8B4492B0001BFD70201000E016E026E54
:10052000000112009EA8FED7AD6ED2EF02F0020EBF
:1005300002013F6FF29A9D8AC00EF2120101866B92
:100540006A0E856FCF0E846FC00E836F82913CC29E
:10055000EAFF3BC2E9FF00018AD72B0E0201406F80
:10056000430E416F4D0E426F470E436F530E446F63
:10057000456B3EC249F23DC248F2020E4B6F400E3F
:100580004A6F000188DF02C049F201C048F202014F
:10059000485302E1495307E0960E466F00011ADF07
:1005A0001A0EC0D70201010182B110D0FF0E8327BD
:1005B000D8A08427D8A08527D8A086278353F4E124
:1005C0008453F2E18553F0E18653EEE182A11BD022
:1005D00082910201496B520E486F3EC24BF23DC2FE
:1005E0004AF2000158DF02C07FF101C07EF1010133
:1005F0007E5302E17F5307E09D8AF28AC00EF21219
:10060000010E016E0AD002013F2F98D7C00EF212E0
:100610009D8AF28A000E016E010100011200010E96
:100620000101886FFC0E876F840EF66E030EF76E65
:10063000090E0201376F0001F3DEF9C1EAFFF8C1CC
:10064000E9FF02D78F0EF66E030EF76E030E02015E
:10065000376F0001E5DE020EEA6E1F0EE96EF2CF83
:1006600037F2F29E0C0E016EF76A000E93DD0A005F
:100670000900F5CFEEFF012EFBD7020137BFF28E46
:100680004F0E2B6F4B0E2C6F2D6B020E3C6F1F0EFF
:100690003B6F020E3E6F2B0E3D6F000148DF015293
:1006A0005AE0020EEA6E1F0EE96EF2CF37F2F29EAA
:1006B000150E016EF76A000E80DD0A000900F5CF05
:1006C000EEFF012EFBD7020137BFF28E4F0E346FC3
:1006D0004B0E356F366B020E3C6F1F0E3B6F020EDA
:1006E0003E6F340E3D6F000122DF015234E03E0EBA
:1006F00002011F6F206B010E3C6FFC0E3B6F020E60
:100700003E6F1F0E3D6F000112DF015224E0020E0A
:10071000EA6E1F0EE96EF2CF37F2F29E070E016EFF
:10072000F76A000E62DD0A000900F5CFEEFF012E28
:10073000FBD7020137BFF28EFBC13CF2FAC13BF29C
:10074000020E3E6F1F0E3D6F0001F1DE015203E00D
:10075000010E016E02D0000E016E1200EA6AE80E70
:10076000E96EE26A520EE16EE752E6CFEEFFFCE17F
:10077000010EEA6EB90EE96EF2CFC8F1F29E000EDC
:1007800090DC0A000900F550EE6E0009FBE1010162
:10079000C8BFF28E0201496BE80E486F010E4B6F25
:1007A000B90E4A6F000177DE02C07FF101C07EF111
:1007B00001017E5302E17F5303E0010E016E2BD055
:1007C000010EEA6EB90EE96EF2CFC8F1F29E000E8C
:1007D000000177DC0A000900F550EE6E0009FBE12C
:1007E0000101C8BFF28E0201496BE80E486F010E8D
:1007F0004B6FB90E4A6F00014EDE02C07FF101C09F
:100800007EF101017E5302E17F5303E0020E016E8F
:1008100002D0000E016E00011200010EEA6EF60E0B
:10082000E96EF2CF0EF2F29E0C0E016EF76A000E28
:10083000B1DC0A000900F5CFEEFF012EFBD7020163
:100840000EBFF28E4F0E026F4B0E036F046B010E44
:100850003C6FF60E3B6F020E3E6F3D6F000167DE90
:10086000015228E0010EEA6EF60EE96EF2CF0EF2AA
:10087000F29E170E016EF76A000EC8DC0A0009002E
:10088000F5CFEEFF012EFBD702010EBFF28E0D6BEE
:10089000010E3C6FF60E3B6F020E3E6F0D0E3D6F6C
:1008A000000145DE015206E001018283010E016E66
:1008B00004D00001000E016E0101000108EF06F0F6
:1008C0000101FA6BFA6BF651FA5D1AE2036AFA510A
:1008D000F825016EF951032203C0FCF1F751FA2506
:1008E000036AE80FE96E000E0320EA6EEFCFFDF118
:1008F000FCC1EAFF01C0E9FFFDC1EFFFFA2BE3D71E
:10090000036AFA51F825E96EF9510320EA6EEF6A9D
:10091000000112004F500F0DF3CFF8F10101F96BF8
:100920004F50030803E1000E016E51D00201496BE4
:100930001D0E486FF7C14BF2F6C14AF20001ABDD64
:1009400002C051F001C050F050523EE151523CE122
:10095000036A0101F8511D0FE96E000E0320EA6ED3
:100960003E0EEF6E010EF827036AF951F625E96E87
:10097000F7510320EA6EEF521AE0036AF8511D0F97
:10098000016E000E032203C0FBF1036AF951F62544
:10099000E96EF7510320EA6EEFCFFCF1FBC1EAFFED
:1009A00001C0E9FFFCC1EFFFF92BF82BDDD7036A8B
:1009B000F8511D0FE96E000E0320EA6EEF6A4F2A10
:1009C000010E016E04D00001000E016E0101000154
:1009D0009AEF05F0016603D0026602D007D0022A22
:1009E00000C0EEFF012EFCD7022EFAD712004F6A8C
:1009F000EA6A1D0EE96E006A026A320E016EEADFD3
:100A0000DAEF05F0F29CF29EF2BEFDD70101B9517A
:100A1000010A000103E0030A03E0FAD0FED6F8D091
:100A2000010EEA6EBA0EE96EF2CFF6F1F29E000EFA
:100A300071EC00F00A000900F550EE6E0009FBE1D0
:100A40000101F6BFF28E0201496BE80E486F010EFC
:100A50004B6FBA0E4A6F00011EDD02C07FF101C06C
:100A60007EF101017E5302E17F532CE00E0EF66F02
:100A7000190EF76F010EF96FC90EF86F000120DF34
:100A8000010EEA6EDD0EE96EF2CFF6F1F29E0C0E6B
:100A9000016EF76A000E81EC00F00A000900F5CF44
:100AA000EEFF012EFBD70101F6BFF28E010EF96FAA
:100AB000C90EF86F010EFB6FDD0EFA6F0001AFDD9E
:100AC000A7D00101010EEA6EBA0EE96EF2CFF6F17F
:100AD000F29E000E000194EC00F00A000900F550AF
:100AE000EE6E0009FBE10101F6BFF28E0201496BD7
:100AF000E80E486F010E4B6FBA0E4A6F0001CBDC57
:100B000002C07FF101C07EF101017E5302E17F53FB
:100B100028E00E0EF66F4B0EF76F010EF96FC90E3F
:100B2000F86F0001CDDE010E0101F76FC90EF66FFF
:100B30000001F0D60E0E0101F66F190EF76F010ECF
:100B4000F96FC90EF86F0001BBDE010E0101F96FEC
:100B5000C90EF86FFB6B1D0EFA6F000160DD58D0F7
:100B60000101010EEA6EBA0EE96EF2CFF6F1F29EC5
:100B7000000E0001A5EC00F00A000900F550EE6E31
:100B80000009FBE10101F6BFF28E0201496BE80E9C
:100B9000486F010E4B6FBA0E4A6F00017CDC02C039
:100BA0007FF101C07EF101017E5302E17F532FE00E
:100BB00000011DD70E0E0101F66F190EF76F010E21
:100BC000F96FC90EF86F00017BDE010EEA6EE90EC7
:100BD000E96EF2CFF6F1F29E0D0E016EF76A000E8D
:100BE000B6EC00F00A000900F5CFEEFF012EFBD7AE
:100BF0000101F6BFF28E010EF96FC90EF86F010EFA
:100C0000FB6FE90EFA6F00010ADD02D0010100015D
:100C10001200C80E0201466F0001EAEC01F0EA6A18
:100C2000520EE96E006A026A960E016ED3DEEA6A1F
:100C3000E80EE96E006A026A960E016ECBDE0101D3
:100C40008291C00EF212F28A9D8A000179EF06F0BD
:100C5000010182A14FD0F29CF29EF2BEFDD70001AD
:100C60007DDD01C08DF101018D5305E08DC1B9F12C
:100C70000001C8DE010182A339D0F29CF29EF2BECF
:100C8000FDD7829300016ADD01C08DF18DC1B9F1FC
:100C9000B9DE640E0201466F0001EAEC01F0010EBC
:100CA000EA6EA80EE96EF2CFB9F1F29E0E0E016E59
:100CB000F76A000E47EC01F00A000900F5CFEEFFDD
:100CC000012EFBD70101B9BFF28E4F0EB66F4B0E4E
:100CD000B76FB86B010E02013C6FA80E3B6F010E9F
:100CE0003E6FB60E3D6F000122DC01018D6B0001ED
:100CF00090D70101000119EF07F0F86AD09E078E26
:100D0000166AB886220EAF6E000EB06EA60EAC6EDE
:100D1000900EAB6E4F6A01017F6B7E6B860E816F0A
:100D2000A00E806F866B6A0E856FCF0E846FC00E2B
:100D3000836F886B876B8291829582978A6B896BB0
:100D40008C6B8B6B8D6B8293C150C00B0F09C16E86
:100D5000070EB46E176A186A000E926E936E800EBC
:100D6000946E000E956EC150C00B0F09C16EC290FB
:100D7000D190C30ED56ED76A060ED66EF28A9D8AC2
:100D8000C00EF2128B8A080EA86FFA0E0201466F8F
:100D90000001EAEC01F00101A82FF7D78B9A140E9D
:100DA000A86FFA0E0201466F0001EAEC01F00101A2
:100DB000A82FF7D7010EEA6E8E0EE96EF2CFA8F1DA
:100DC000F29E0D0E016EF76A000E00011FEC01F09D
:100DD0000A000900F5CFEEFF012EFBD70101A8BFE5
:100DE000F28E010EEA6E9B0EE96EF2CFAAF1F29E30
:100DF0000D0E016EF76A000E000133EC01F00A00DF
:100E00000900F5CFEEFF012EFBD70101AABFF28E3C
:100E1000010EF96F8E0EF86F010EFB6F9B0EFA6FCD
:100E200000010FEC03F0010182A504D082950001BE
:100E30000FD7010182A705D08297000102EF00F0D1
:060E40000101F2D70300DE
:020000040030CA
:0E0000003BCE3E1E0087A1000FC00FE00F4058
:00000001FF
;PIC18F4550
;CRC=A8FE  CREATED="21-out-18 11:33"
