:10000000D5EF0AF091EF0BF0046ED8CF05F0E0CFFA
:1000100006F00001E9CF0CF0EACF07F0E1CF08F0DD
:10002000E2CF09F0D9CF0AF0DACF0BF0F3CF12F01C
:10003000F4CF13F0FACF14F000C00EF001C00FF0AF
:1000400002C010F003C011F0F2A82AEF00F0F2B2E3
:100050001AEF03F09DAA30EF00F09EBA69EF02F0AC
:10006000F2AA36EF00F0F2B4CDEF02F00EC000F0CD
:100070000FC001F010C002F011C003F00CC0E9FF86
:1000800007C0EAFF078E08C0E1FF09C0E2FF0AC00F
:10009000D9FF0BC0DAFF12C0F3FF13C0F4FF14C086
:1000A000FAFF045006C0E0FF05C0D8FF1000F2CFF1
:1000B0000DF0F29EF76AC80FF66E000EF7220900E7
:1000C000F5500DBEF28E12002B434D544900F2CF75
:1000D0000DF0F29EF76AE80FF66E000EF7220900A7
:1000E000F5500DBEF28E12002B434D474C00F2CF5F
:1000F0000DF0F29EF76A080FF66E010EF722090066
:10010000F5500DBEF28E12004F4954414900F2CF16
:100110000DF0F29EF76A280FF66E010EF722090025
:10012000F5500DBEF28E12004845415254424541F1
:1001300054282900F2CF0DF0F29EF76A4E0FF66EAA
:10014000010EF7220900F5500DBEF28E12002B4E63
:10015000554D41444400F2CF0DF0F29EF76A700F06
:10016000F66E010EF7220900F5500DBEF28E120058
:100170002B4E554D44454C00F2CF0DF0F29EF76AE0
:10018000920FF66E010EF7220900F5500DBEF28EA9
:1001900012004F4B20434C45415220414C4C000033
:1001A000F2CF0DF0F29EF76ABA0FF66E010EF7224B
:1001B0000900F5500DBEF28E12002B47534D4C4FE7
:1001C000434154450000F2CF0DF0F29EF76AE00F74
:1001D000F66E010EF7220900F5500DBEF28E1200E8
:1001E00041542B434D47463D310D0A00F2CF0DF0EF
:1001F000F29EF76A060FF66E020EF7220900F5501E
:100200000DBEF28E120041542B43534D503D3137F9
:100210002C3235352C302C300D0A0000F2CF0DF089
:10022000F29EF76A360FF66E020EF7220900F550BD
:100230000DBEF28E12002B434D47533A0000F2CF11
:100240000DF0F29EF76A580FF66E020EF7220900C3
:10025000F5500DBEF28E120041542B434D474C3DDC
:100260002252454320554E52454144220D0A00007A
:10027000F2CF0DF0F29EF76A8A0FF66E020EF722A9
:100280000900F5500DBEF28E120041542B43474138
:1002900054543D310D0A0000F2CF0DF0F29EF76A82
:1002A000B20FF66E020EF7220900F5500DBEF28E67
:1002B000120041542B53415042523D332C312C22D9
:1002C000434F4E54595045222C2247505253220D31
:1002D0000A00F2CF0DF0F29EF76AEC0FF66E020EF6
:1002E000F7220900F5500DBEF28E120041542B5337
:1002F000415042523D332C312C2241504E222C226F
:10030000434D4E4554220D0A0000F2CF0DF0F29EEF
:10031000F76A240FF66E030EF7220900F5500DBEA2
:10032000F28E120041542B53415042523D312C3138
:100330000D0A0000F2CF0DF0F29EF76A4E0FF66E36
:10034000030EF7220900F5500DBEF28E1200415443
:100350002B53415042523D322C310D0A0000F2CF56
:100360000DF0F29EF76A780FF66E030EF722090081
:10037000F5500DBEF28E12002B53415042523A00FE
:10038000F2CF0DF0F29EF76A9A0FF66E030EF72287
:100390000900F5500DBEF28E120041542B434C4221
:1003A000534346473D302C310D0A0000F2CF0DF08B
:1003B000F29EF76AC60FF66E030EF7220900F5509B
:1003C0000DBEF28E12002B434C42534346473A0077
:1003D000F2CF0DF0F29EF76AEA0FF66E030EF722E7
:1003E0000900F5500DBEF28E120041542B434C42D1
:1003F000533D312C310D0A00F2CF0DF0F29EF76A19
:10040000120FF66E040EF7220900F5500DBEF28EA3
:1004100012002B434C42533A0000F2CF0DF0F29EF3
:10042000F76A340FF66E040EF7220900F5500DBE80
:10043000F28E120041542B53415042523D302C3128
:100440000D0A0000F2CF0DF0F29EF76A5E0FF66E15
:10045000040EF7220900F5500DBEF28E1200303363
:10046000313939353832323733390000F2CF0DF0B7
:10047000F29EF76A860FF66E040EF7220900F55019
:100480000DBEF28E1200494E494349414E444F2E53
:100490002E2E0000F2CF0DF0F29EF76AAE0FF66E30
:1004A000040EF7220900F5500DBEF28E12004154E1
:1004B0002B434D47443D312C310D0A009EAAFED7F7
:1004C000ABCF16F0AECF01F016A202D0AB98AB883E
:1004D0001200010E05015C6F9EAA53D0010182A19A
:1004E00002D005014ED00001E9DF01C05DF5050134
:1004F0005D513E0809E05D512B0806E05D510A0898
:1005000003E05D510D083DE15DC552F05C5193087B
:1005100029E30101805305E18153D8A402D00501EC
:1005200021D09EAA19D00001C9DF01C05DF5036A80
:1005300005015C51520FE96E000E0320EA6E5DC5A5
:10054000EFFF5D513B0802E15C2B0CD05C2B860E6B
:100550000101816FA00E806F8051D8B481078007A0
:100560000501D4D701018281860E816FA00E806FB4
:10057000036A05015C51520FE96E000E0320EA6E1A
:10058000EF6A9E9A000136EF00F041542B434D472D
:10059000533D222573220D0A0000D76A060ED66E3F
:1005A000010182A92AD00401735101081EE303E16D
:1005B0007251F3081AE3B60E7225E96E010E73212B
:1005C000EA6EC282C2B2FED70501C430036EC330E8
:1005D000026E033202323F0E031602C0EFFF897033
:1005E0000401722BD8B4732B06D001018299828B3F
:1005F0009D8AF28804011AD00101B12BD8B4B22B24
:10060000B151E80812E1B25103080FE1B32BD8B49D
:10061000B42BB26BB16B82858970B3513C0805E194
:10062000B45303E1B46BB36B82870401F29400010D
:1006300036EF00F0040E016EC250C30B0110C26E03
:100640009D9AF29801018289828D829B0401736BCD
:10065000726BF292000136EF00F0050EEA6E510E59
:10066000E96EEF500EE0050E016E006A002EFED717
:10067000012EFBD72E0E006E002EFED700D0EF2EDF
:10068000F2D71200B0C1EAFFAFC1E9FF050145C5CD
:10069000EFFFE92AD8B4EA2AEF6A0101AF2BD8B4F8
:1006A000B02B000112000900F6CF43F5F7CF44F557
:1006B000F5CF45F5E7DF43C5F6FF44C5F7FF050174
:1006C000422F01D002D00001EED700011200EF52FC
:1006D0000FE0EACF43F5E9CF42F5EFCF45F5D2DFA2
:1006E00043C5EAFF42C5E9FFE92AD8B4EA2AEFD7B1
:1006F00065EF04F0EF5210E0EACF52F5E9CF51F583
:10070000EF509EA8FED7AD6E52C5EAFF51C5E9FF76
:10071000E92AD8B4EA2AEED7F0EF03F054C503F083
:10072000050153C5E9FF54C5EAFFEF5239E054C54E
:1007300058F553C557F556C55AF555C559F55AC517
:1007400003F059C5E9FF5AC5EAFFEF5216E057C555
:10075000E9FF58C5EAFFEFCF5BF55AC503F059C56D
:10076000E9FF5AC5EAFFEF505B5D07E1572BD8B4AC
:10077000582B592BD8B45A2BE2D75AC503F059C578
:10078000E9FF03C0EAFFEF5205E153C501F054C58C
:1007900002F009D0532BD8B4542B0001BFD7050168
:1007A000000E016E026E000112009EA8FED7AD6E13
:1007B00015EF04F0020E05014A6FF29A9D8AC00EF1
:1007C000F2120101866B6A0E856FCF0E846FC00E28
:1007D000836F829147C5EAFF46C5E9FF00018AD7CA
:1007E0002B0E05014B6F430E4C6F4D0E4D6F470E98
:1007F0004E6F530E4F6F506B49C554F548C553F5B6
:10080000050E566F4B0E556F000188DF02C054F580
:1008100001C053F50501535302E1545307E0960E0E
:10082000516F00011ADF1A0EC0D70501010182B114
:1008300010D0FF0E8327D8A08427D8A08527D8A062
:1008400086278353F4E18453F2E18553F0E1865324
:10085000EEE182A11BD082910501546B520E536FC1
:1008600049C556F548C555F5000158DF02C07FF16E
:1008700001C07EF101017E5302E17F5307E09D8AB2
:10088000F28AC00EF212010E016E0AD005014A2F43
:1008900098D7C00EF2129D8AF28A000E016E0101F5
:1008A00000011200050E0101B06F070EAF6F8A0E36
:1008B000F66E050EF76E090E0501426F0001F3DEBC
:1008C00004C5EAFF03C5E9FF02D7950EF66E050ED3
:1008D000F76E030E0501426F0001E5DE050EEA6EBC
:1008E0002A0EE96EF2CF42F5F29E0C0E016EF76A07
:1008F000000E69DC0A000900F5CFEEFF012EFBD7E0
:10090000050142BFF28E4F0E366F4B0E376F386BBC
:10091000050E476F2A0E466F050E496F360E486F5B
:10092000000148DF01525AE0050EEA6E2A0EE96E18
:10093000F2CF42F5F29E150E016EF76A000E56DCFC
:100940000A000900F5CFEEFF012EFBD7050142BFDB
:10095000F28E4F0E3F6F4B0E406F416B050E476F8F
:100960002A0E466F050E496F3F0E486F000122DFC9
:10097000015234E03E0E05012A6F2B6B050E476FC6
:10098000070E466F050E496F2A0E486F000112DFF1
:10099000015224E0050EEA6E2A0EE96EF2CF42F50E
:1009A000F29E070E016EF76A000E38DC0A0009009D
:1009B000F5CFEEFF012EFBD7050142BFF28E06C533
:1009C00047F505C546F5050E496F2A0E486F00012B
:1009D000F1DE015203E0010E016E02D0000E016E45
:1009E0001200040174697569736B726B736B726BBF
:1009F000735318E172510E0815E3B60E7225E96EB5
:100A0000010E7321EA6E7451EF5C08E2B60E722596
:100A1000E96E010E7321EA6EEFCF74F4722BD8B435
:100A2000732BE6D700017DEF0AF0EA6AE80EE96E63
:100A3000E26A520EE16EE752E6CFEEFFFCE1040EF1
:100A4000EA6EA10EE96EF2CFB0F4F29E000E57EC02
:100A500000F00A000900F550EE6E0009FBE1040108
:100A6000B0BFF28E0501546BE80E536F040E566F43
:100A7000A10E556F000152DE02C07FF101C07EF170
:100A800001017E5302E17F5303E0010E016E2CD081
:100A9000040EEA6EA10EE96EF2CFB0F4F29E000EE3
:100AA000000167EC00F00A000900F550EE6E000945
:100AB000FBE10401B0BFF28E0501546BE80E536FE9
:100AC000040E566FA10E556F000128DE02C07FF1A3
:100AD00001C07EF101017E5302E17F5303E0020E6B
:100AE000016E02D0000E016E00011200040EEA6ECB
:100AF000DE0EE96EF2CFF6F4F29E0C0E016EF76A8E
:100B0000000EE3EC00F00A000900F5CFEEFF012E25
:100B1000FBD70401F6BFF28E4F0EEA6F4B0EEB6F60
:100B2000EC6B040E0501476FDE0E466F040E496F35
:100B3000EA0E486F00013EDE01522AE0040EEA6E22
:100B4000DE0EE96EF2CFF6F4F29E170E016EF76A32
:100B5000000E1FEC01F00A000900F5CFEEFF012E98
:100B6000FBD70401F6BFF28EF56B040E0501476F4B
:100B7000DE0E466F040E496FF50E486F00011ADE57
:100B8000015206E001018283010E016E04D00001D2
:100B9000000E016E0101000154EF0AF00401E26B46
:100BA000E26BDE51E25D1AE2036AE251E025016E7A
:100BB000E151032203C0E4F4DF51E225036AE80FA8
:100BC000E96E000E0320EA6EEFCFE5F4E4C4EAFF1D
:100BD00001C0E9FFE5C4EFFFE22BE3D7036AE2516E
:100BE000E025E96EE1510320EA6EEF6A0001120090
:100BF0004F500F0DF3CFE0F40401E16B4F500308A9
:100C000003E1000E016E51D00501546B1D0E536FB0
:100C1000DFC456F5DEC455F5000180DD02C051F099
:100C200001C050F050523EE151523CE1036A0401D0
:100C3000E0511D0FE96E000E0320EA6E3E0EEF6ECE
:100C4000010EE027036AE151DE25E96EDF51032042
:100C5000EA6EEF521AE0036AE0511D0F016E000EBA
:100C6000032203C0E3F4036AE151DE25E96EDF519C
:100C70000320EA6EEFCFE4F4E3C4EAFF01C0E9FF2A
:100C8000E4C4EFFFE12BE02BDDD7036AE0511D0F39
:100C9000E96E000E0320EA6EEF6A4F2A010E016E24
:100CA00004D00001000E016E04010001A4EF09F060
:100CB000016603D0026602D007D0022A00C0EEFF10
:100CC000012EFCD7022EFAD712004F6AEA6A1D0ED7
:100CD000E96E006A026A320E016EEADFE6EF09F0A1
:100CE0000501036B046B010EEA6E870EE96E006A64
:100CF000026A280E016E0001DBDF4C0E0101876FD6
:100D00004F0E886F430E896F410E8A6F540E8B6FA2
:100D1000450E8C6F3A0E8D6F200E8E6F080E0501FA
:100D2000046F160E036F035120081AE3036A04517F
:100D3000870F016E010E032203C006F5036A0351FB
:100D4000520FE96E000E0320EA6EEFCF07F506C5DD
:100D5000EAFF01C0E9FF07C5EFFF042B032BE3D730
:100D60000B0E036F035115081AE3036A0451870F32
:100D7000016E010E032203C006F5036A0351520FF0
:100D8000E96E000E0320EA6EEFCF07F506C5EAFF15
:100D900001C0E9FF07C5EFFF042B032BE3D7045184
:100DA000042B036A870FE96E010E0320EA6E200E02
:100DB000EF6E0451042B036A870FE96E010E0320C6
:100DC000EA6E520EEF6E0451042B036A870FE96E30
:100DD000010E0320EA6E3D0EEF6E210E036F0351EC
:100DE00023081AE3036A0451870F016E010E0322E0
:100DF00003C006F5036A0351520FE96E000E03208B
:100E0000EA6EEFCF07F506C5EAFF01C0E9FF07C5A7
:100E1000EFFF042B032BE3D70451042B036A870F46
:100E2000E96E010E0320EA6E6D0EEF6E036A045147
:100E3000870FE96E010E0320EA6EEF6A0001A1EF51
:100E400008F0040EEA6EE00EE96EF2CF03F5F29EB2
:100E50000C0E016EF76A000EE3EC00F00A000900C8
:100E6000F5CFEEFF012EFBD7050103BFF28E4F0E2B
:100E70000401EC6F4B0EED6FEE6B040E0501476F36
:100E8000E00E466F040E496FEC0E486F000192DCD5
:100E90000152D8B48FD1040EEA6EE00EE96EF2CFA3
:100EA00003F5F29E0D0E016EF76A000E38EC01F0AC
:100EB0000A000900F5CFEEFF012EFBD7050103BFA5
:100EC000F28E4F0E0401ED6F4B0EEE6FEF6B040EC2
:100ED0000501476FE00E466F040E496FED0E486F37
:100EE000000168DC0152D8B465D1040EEA6EE00E50
:100EF000E96EF2CF03F5F29E200E016EF76A000E46
:100F00004CEC01F00A000900F5CFEEFF012EFBD7F3
:100F1000050103BFF28E4F0E006F4B0E016F026B87
:100F2000040E476FE00E466F050E496F486B0001D7
:100F300041DC0152D8B43ED1040EEA6EE00EE96EF7
:100F4000F2CF03F5F29E1D0E016EF76A000E69ECFA
:100F500001F00A000900F5CFEEFF012EFBD70501D5
:100F600003BFF28E4F0E0401FD6F4B0EFE6FFF6B41
:100F7000040E0501476FE00E466F040E496FFD0E2B
:100F8000486F000117DC0152D8B414D1040EEA6E88
:100F9000E00EE96EF2CF03F5F29E0F0E016EF76AD6
:100FA000000E85EC01F00A000900F5CFEEFF012EDE
:100FB000FBD7050103BFF28E4F0E0401EF6F4B0EFE
:100FC000F06FF16B040E0501476FE00E466F040EE3
:100FD000496FEF0E486F0001DAEC03F00152D8B40C
:100FE000E9D0040EEA6EE00EE96EF2CF03F5F29E50
:100FF0000F0E016EF76A000E9AEC01F00A0009006C
:10100000F5CFEEFF012EFBD7050103BFF28E040ED4
:10101000EA6EEF0EE96EF2CF05F5F29E080E016E54
:10102000F76A000E0001AFEC01F00A000900F5CFED
:10103000EEFF012EFBD7050105BFF28E040E476FB0
:10104000E00E466F040E496FEF0E486F0001DAECB8
:1010500003F00152D8B4AED0040EEA6EE00EE96E91
:10106000F2CF03F5F29E110E016EF76A000EC0EC8E
:1010700001F00A000900F5CFEEFF012EFBD70501B4
:1010800003BFF28E040EEA6EF10EE96EF2CF05F5A3
:10109000F29E0A0E016EF76A000E0001D6EC01F016
:1010A0000A000900F5CFEEFF012EFBD7050105BFB1
:1010B000F28E040E476FE00E466F040E496FF10E7C
:1010C000486F0001DAEC03F0015274E0040EEA6E9E
:1010D000E00EE96EF2CF03F5F29E0E0E016EF76A96
:1010E000000EE8EC01F00A000900F5CFEEFF012E3A
:1010F000FBD7050103BFF28E040EEA6EEE0EE96E19
:10110000F2CF05F5F29E070E016EF76A000E0001A0
:10111000FCEC01F00A000900F5CFEEFF012EFBD731
:10112000050105BFF28E040E476FE00E466F040EF8
:10113000496FEE0E486F0001DAEC03F001523AE01D
:10114000CFD5DFC404F5DEC403F5010E0501066F3B
:10115000870E056F000152EC04F0040EEA6EE00EFB
:10116000E96EF2CF03F5F29E0F0E016EF76A000EE4
:101170000DEC02F00A000900F5CFEEFF012EFBD7BF
:10118000050103BFF28E4F0E0401EF6F4B0EF06F9F
:10119000F16B040E0501476FE00E466F040E496FB8
:1011A000EF0E486F0001DAEC03F0015203E0010E8C
:1011B000016E2AD0040EEA6EE00EE96EF2CF03F55E
:1011C000F29E0F0E016EF76A000E0DEC02F00A009F
:1011D0000900F5CFEEFF012EFBD7050103BFF28E0C
:1011E0004F0E0401EF6F4B0EF06FF16B040E050113
:1011F000476FE00E466F040E496FEF0E486F000117
:10120000DAEC03F0000E016E54EF0AF0F29CF29E4D
:10121000F2BEFDD70401A151010A000103E0030A57
:1012200003E042D163D440D1040EEA6EA20EE96E0F
:10123000F2CFDEF4F29E000E77EC00F00A00090017
:10124000F550EE6E0009FBE10401DEBFF28E0501F0
:10125000546BE80E536F040E566FA20E556F0001CB
:101260008EEC03F002C07FF101C07EF101017E53DC
:1012700002E17F532FE00E0E0401DE6F190EDF6FC7
:10128000040EE16FB10EE06F000188DC040EEA6E1F
:10129000C50EE96EF2CFDEF4F29E0C0E016EF76A17
:1012A000000E87EC00F00A000900F5CFEEFF012EDA
:1012B000FBD70401DEBFF28E040E0501046FB10EF0
:1012C000036F040E066FC50E056F000152EC04F0AB
:1012D000EBD00101040EEA6EA20EE96EF2CFDEF44D
:1012E000F29E000E00019AEC00F00A000900F55091
:1012F000EE6E0009FBE10401DEBFF28E0501546BC6
:10130000E80E536F040E566FA20E556F00018EEC5F
:1013100003F002C07FF101C07EF101017E5302E1C2
:101320007F532AE00E0E0401DE6F4B0EDF6F040EBA
:10133000E16FB10EE06F000131DC040E0401DF6FDC
:10134000B10EDE6F000154D40E0E0401DE6F190ED3
:10135000DF6F040EE16FB10EE06F00011FDC040EC1
:101360000501046FB10E036F066B1D0E056F0001C2
:1013700052EC04F099D00101040EEA6EA20EE96E5F
:10138000F2CFDEF4F29E000E0001ABEC00F00A009A
:101390000900F550EE6E0009FBE10401DEBFF28E9C
:1013A0000501546BE80E536F040E566FA20E556F75
:1013B00000018EEC03F002C07FF101C07EF101015B
:1013C0007E5302E17F5332E000017FD40E0E040110
:1013D000DE6F190EDF6F040EE16FB10EE06F0001DA
:1013E000CEEC05F0040EEA6ED10EE96EF2CFDEF41B
:1013F000F29E0D0E016EF76A000EBCEC00F00A00C2
:101400000900F5CFEEFF012EFBD70401DEBFF28EFF
:10141000040E0501046FB10E036F040E066FD10EAA
:10142000056F000152EC04F03FD00101040EEA6E9A
:10143000A20EE96EF2CFDEF4F29E000E0001D0ECB7
:1014400000F00A000900F550EE6E0009FBE104010E
:10145000DEBFF28E0501546BE80E536F040E566F1B
:10146000A20E556F00018EEC03F002C07FF101C0A7
:101470007EF101017E5302E17F5315E00E0E04015F
:10148000DE6F190EDF6F040EE16FB10EE06F000129
:10149000CEEC05F0040E0401DF6FB10EDE6F00012B
:1014A000D0D402D0010100011200C80E0501516F15
:1014B00000012DEC03F0EA6A520EE96E006A026A3E
:1014C000960E016E58EC06F0EA6AE80EE96E006AC4
:1014D000026A960E016E58EC06F001018291C00E70
:1014E000F212F28A9D8A0001D1EF0AF0010182AB6B
:1014F00005D0829B0001F1EF04F0010182A152D0DE
:10150000F29CF29EF2BEFDD7000115EC05F001C081
:10151000B5F10101B55305E0B5C1A1F4000176DED6
:10152000010182A33BD0F29CF29EF2BEFDD78293D2
:10153000000115EC05F001C0B5F1B5C1A1F466DEFE
:10154000640E0501516F00012DEC03F0040EEA6EEC
:10155000900EE96EF2CFA1F4F29E0E0E016EF76AC4
:10156000000E4AEC02F00A000900F5CFEEFF012E52
:10157000FBD70401A1BFF28E4F0E9E6F4B0E9F6FE3
:10158000A06B040E0501476F900E466F040E496F65
:101590009E0E486F0001DAEC03F00101B56B00010B
:1015A00084D7010100018AEF0BF0F86AD09E078E04
:1015B000166AB886220EAF6E000EB06EA60EAC6E26
:1015C000900EAB6E93948A844F6A01017F6B7E6BA1
:1015D000860E816FA00E806F866B6A0E856FCF0EB0
:1015E000846FC00E836FB06BAF6B829182958297D0
:1015F000B26BB16BB46BB36BB56B82938299829B08
:10160000829D0401736B726B74697569C150C00B64
:101610000F09C16E070EB46E176A186A0E0E926E2D
:10162000090E936E800E946E000E956EC150C00B25
:101630000B09C16EC050C00BC06EC08EC280040EBC
:10164000016EC250C30B0110C26ED190C30ED56E95
:10165000D76A060ED66EF19CF28A9D8AF288F19CBA
:10166000C00EF2128C94080E906FFA0E0501516FA5
:1016700000012DEC03F00401902FF7D78C843C0E71
:10168000906FFA0E0501516F00012DEC03F004017B
:10169000902FF7D7040EEA6E760EE96EF2CF90F433
:1016A000F29E0D0E016EF76A000E000122EC02F0B0
:1016B0000A000900F5CFEEFF012EFBD7040190BF11
:1016C000F28E040EEA6E830EE96EF2CF92F4F29E71
:1016D0000D0E016EF76A000E000136EC02F00A00F2
:1016E0000900F5CFEEFF012EFBD7040192BFF28E69
:1016F000040E0501046F760E036F040E066F830E51
:10170000056F000152EC04F0010182A504D082951E
:101710000001ECD6010182A705D08297000102EFFB
:0817200000F00101F2D7030003
:020000040030CA
:0E0000003BCE3E1E0087A1000FC00FE00F4058
:00000001FF
;PIC18F4550
;CRC=9342  CREATED="04-nov-18 22:38"
