:040000004AEF16F0BD
:08000800046ED8CF05F0E0CF33
:1000100006F00001E9CF0CF0EACF07F0E1CF08F0DD
:10002000E2CF09F0D9CF0AF0DACF0BF0F3CF12F01C
:10003000F4CF13F0FACF14F000C00EF001C00FF0AF
:1000400002C010F003C011F0F2A82AEF00F0F2B2E3
:1000500086EF04F09DAA30EF00F09EBAEEEF02F0BA
:10006000F2AA36EF00F0F2B4C8EF03F00EC000F0D1
:100070000FC001F010C002F011C003F00CC0E9FF86
:1000800007C0EAFF078E08C0E1FF09C0E2FF0AC00F
:10009000D9FF0BC0DAFF12C0F3FF13C0F4FF14C086
:1000A000FAFF045006C0E0FF05C0D8FF1000F2CFF1
:1000B0000DF0F29EF76AC80FF66E000EF7220900E7
:1000C000F5500DBEF28E12002B434D544900F2CF75
:1000D0000DF0F29EF76AE80FF66E000EF7220900A7
:1000E000F5500DBEF28E12002B434D474C00F2CF5F
:1000F0000DF0F29EF76A080FF66E010EF722090066
:10010000F5500DBEF28E12004F4954414900F2CF16
:100110000DF0F29EF76A280FF66E010EF722090025
:10012000F5500DBEF28E12004845415254424541F1
:1001300054282900F2CF0DF0F29EF76A4E0FF66EAA
:10014000010EF7220900F5500DBEF28E12002B4E63
:10015000554D41444400F2CF0DF0F29EF76A700F06
:10016000F66E010EF7220900F5500DBEF28E120058
:100170002B4E554D44454C00F2CF0DF0F29EF76AE0
:10018000920FF66E010EF7220900F5500DBEF28EA9
:1001900012004F4B20434C45415220414C4C000033
:1001A000F2CF0DF0F29EF76ABA0FF66E010EF7224B
:1001B0000900F5500DBEF28E12002B47534D4C4FE7
:1001C000434154450000F2CF0DF0F29EF76AE00F74
:1001D000F66E010EF7220900F5500DBEF28E1200E8
:1001E0002B4355524C494D00F2CF0DF0F29EF76A69
:1001F000020FF66E020EF7220900F5500DBEF28EC8
:1002000012002B435552414C4D00F2CF0DF0F29E9F
:10021000F76A240FF66E020EF7220900F5500DBEA4
:10022000F28E12002B43535441545300F2CF0DF081
:10023000F29EF76A460FF66E020EF7220900F5509D
:100240000DBEF28E12002B5345545A45524F0000FA
:10025000F2CF0DF0F29EF76A6A0FF66E020EF722E9
:100260000900F5500DBEF28E12005A45524F205330
:10027000455445440000F2CF0DF0F29EF76A900F0E
:10028000F66E020EF7220900F5500DBEF28E120036
:1002900041542B434D47463D310D0A00F2CF0DF03E
:1002A000F29EF76AB60FF66E020EF7220900F550BD
:1002B0000DBEF28E120041542B43534D503D313749
:1002C0002C3235352C302C300D0A0000F2CF0DF0D9
:1002D000F29EF76AE60FF66E020EF7220900F5505D
:1002E0000DBEF28E12002B434D47533A0000F2CF61
:1002F0000DF0F29EF76A080FF66E030EF722090062
:10030000F5500DBEF28E120041542B434D474C3D2B
:100310002252454320554E52454144220D0A0000C9
:10032000F2CF0DF0F29EF76A3A0FF66E030EF72247
:100330000900F5500DBEF28E120041542B43474187
:1003400054543D310D0A0000F2CF0DF0F29EF76AD1
:10035000620FF66E030EF7220900F5500DBEF28E05
:10036000120041542B53415042523D332C312C2228
:10037000434F4E54595045222C2247505253220D80
:100380000A00F2CF0DF0F29EF76A9C0FF66E030E94
:10039000F7220900F5500DBEF28E120041542B5386
:1003A000415042523D332C312C2241504E222C22BE
:1003B000434D4E4554220D0A0000F2CF0DF0F29E3F
:1003C000F76AD40FF66E030EF7220900F5500DBE42
:1003D000F28E120041542B53415042523D312C3188
:1003E0000D0A0000F2CF0DF0F29EF76AFE0FF66ED6
:1003F000030EF7220900F5500DBEF28E1200415493
:100400002B53415042523D322C310D0A0000F2CFA5
:100410000DF0F29EF76A280FF66E040EF72209001F
:10042000F5500DBEF28E12002B53415042523A004D
:10043000F2CF0DF0F29EF76A4A0FF66E040EF72225
:100440000900F5500DBEF28E120041542B434C4270
:10045000534346473D302C310D0A0000F2CF0DF0DA
:10046000F29EF76A760FF66E040EF7220900F55039
:100470000DBEF28E12002B434C42534346473A00C6
:10048000F2CF0DF0F29EF76A9A0FF66E040EF72285
:100490000900F5500DBEF28E120041542B434C4220
:1004A000533D312C310D0A00F2CF0DF0F29EF76A68
:1004B000C20FF66E040EF7220900F5500DBEF28E43
:1004C00012002B434C42533A0000F2CF0DF0F29E43
:1004D000F76AE40FF66E040EF7220900F5500DBE20
:1004E000F28E120041542B53415042523D302C3178
:1004F0000D0A0000F2CF0DF0F29EF76A0E0FF66EB5
:10050000050EF7220900F5500DBEF28E12003033B1
:10051000313939353832323733390000F2CF0DF006
:10052000F29EF76A360FF66E050EF7220900F550B7
:100530000DBEF28E1200494E494349414E444F2EA2
:100540002E2E0000F2CF0DF0F29EF76A5E0FF66ECF
:10055000050EF7220900F5500DBEF28E120041542F
:100560002B434D47443D312C310D0A00F2CF0DF0A5
:10057000F29EF76A860FF66E050EF7220900F55017
:100580000DBEF28E1200212121414C455254413AB8
:10059000204261746572696120656D2064657363D2
:1005A00061726761207261706964612056455249C9
:1005B0004649515545205345552056454943554CCC
:1005C0004F21212100009EAAFED7ABCF16F0AECF5F
:1005D00001F016A202D0AB98AB881200010E070101
:1005E0002F6F9EAA53D0010182A102D007014ED0E5
:1005F0000001E9DF01C030F7070130513E0809E092
:1006000030512B0806E030510A0803E030510D0844
:100610003DE130C752F02F51930829E30101805387
:1006200005E18153D8A402D0070121D09EAA19D098
:100630000001C9DF01C030F7036A07012F51520FD3
:10064000E96E000E0320EA6E30C7EFFF30513B0821
:1006500002E12F2B0CD02F2B860E0101816FA00EF3
:10066000806F8051D8B4810780070701D4D701017A
:100670008281860E816FA00E806F036A07012F5161
:10068000520FE96E000E0320EA6EEF6A9E9A000197
:1006900036EF00F0436F7272656E7465204C696DC1
:1006A000697465203D20254C75206D41000054651E
:1006B0006D706F20456E74726520416C6572746157
:1006C00073203D20254C75206D696E0054656D705A
:1006D0006F20456E74726520416C65727461732081
:1006E0003D20254C75206D696E202F20436F72725E
:1006F000656E7465204C696D697465203D20254CDC
:1007000075206D41202F20436F7272656E746520D5
:10071000417475616C3A2025362E3066206D41207B
:100720002F2054656E73616F20417475616C3A209F
:1007300025322E326620560041542B434D47533DFF
:10074000222573220D0A0000016A026A006A036A08
:100750000701325102E1315118E0100E336FD89089
:100760002F373037003603363251035C02E1315106
:10077000005C07E33151005ED8A003063251035EEE
:10078000D88001360236332FEAD7000107EF04F094
:10079000D76A060ED66E010182A92CD003015F51E3
:1007A00001081EE303E15E518F081AE3CE0E5E25B9
:1007B000E96E010E5F21EA6EC282C2B2FED7070166
:1007C000C430036EC330026E033202323F0E031692
:1007D00002C0EFFF897003015E2BD8B45F2B08D0F5
:1007E0005F6B5E6B01018299828B9D8AF2880301A7
:1007F00089D00101C92BD8B4CA2BCAC130F7C9C1ED
:100800002FF70701326B050E316F00019DD700C035
:100810002FF7070103C030F72F5359E1305357E149
:100820000101827F82AF34D0D89003016035036A22
:10083000640FE96E030E0320EA6EC282C2B2FED7D5
:10084000C3CFEFFFC4CFECFF0C0E016EC250C30B41
:100850000110C26E0C0E006E002EFED700D00000FC
:10086000D8906035036A2C0FE96E040E0320EA6EFF
:10087000C282C2B2FED7C3CFEFFFC4CFECFF040EDB
:10088000016EC250C30B0110C26E602B1FD001015C
:10089000036A03016151F40FE96E040E0320EA6E4E
:1008A000C282C2B2FED70701C430036EC330026EEB
:1008B000033202323F0E031602C0EFFF080E016E34
:1008C000C250C30B0110C26E0301612B070101016D
:1008D000C951E80816E1CA51030813E1CB2BD8B47B
:1008E000CC2BCA6BC96B82850301606B616B89700D
:1008F0000101CB513C0805E1CC5303E1CC6BCB6B40
:1009000082870301F294000136EF00F0040E016EBD
:10091000C250C30B0110C26E9D9AF29801018289E8
:10092000828D829B03015F6B5E6BF292000136EF5A
:1009300000F0436F7272656E74653A2025362E3072
:10094000662054656E73616F3A2025322E32662020
:100950000D0A0000070EEA6E240EE96EEF500EE05D
:10096000050E016E006A002EFED7012EFBD72E0E5B
:10097000006E002EFED700D0EF2EF2D712009CC1E1
:10098000EAFF9BC1E9FF070118C7EFFFE92AD8B4C6
:10099000EA2AEF6A01019B2BD8B49C2B00011200BC
:1009A0000900F6CF16F7F7CF17F7F5CF18F7E7DFFF
:1009B00016C7F6FF17C7F7FF0701152F01D002D0A2
:1009C0000001EED700011200EF520FE0EACF16F758
:1009D000E9CF15F7EFCF18F7D2DF16C7EAFF15C733
:1009E000E9FFE92AD8B4EA2AEFD7E2EF05F0EF529F
:1009F00010E0EACF25F7E9CF24F7EF509EA8FED705
:100A0000AD6E25C7EAFF24C7E9FFE92AD8B4EA2A70
:100A1000EED76DEF05F027C703F0070126C7E9FF02
:100A200027C7EAFFEF5239E027C72BF726C72AF777
:100A300029C72DF728C72CF72DC703F02CC7E9FFCE
:100A40002DC7EAFFEF5216E02AC7E9FF2BC7EAFFDE
:100A5000EFCF2EF72DC703F02CC7E9FF2DC7EAFF14
:100A6000EF502E5D07E12A2BD8B42B2B2C2BD8B4BA
:100A70002D2BE2D72DC703F02CC7E9FF03C0EAFFF7
:100A8000EF5205E126C701F027C702F009D0262B57
:100A9000D8B4272B0001BFD70701000E016E026EEC
:100AA000000112009EA8FED7AD6E92EF05F0020E77
:100AB00007011D6FF29A9D8AC00EF2120101A06B10
:100AC0006A0E9F6FCF0E9E6FC00E9D6F82911AC7E8
:100AD000EAFF19C7E9FF00018AD72B0E07011E6F35
:100AE000430E1F6F4D0E206F470E216F530E226F66
:100AF000236B1CC727F71BC726F7070E296F1E0E8F
:100B0000286F000188DF02C027F701C026F7070120
:100B1000265302E1275307E0960E246F00011ADFE7
:100B20001A0EC0D70701010182B110D0FF0E9D2718
:100B3000D8A09E27D8A09F27D8A0A0279D53F4E136
:100B40009E53F2E19F53F0E1A053EEE182A11BD04E
:100B500082910701276B520E266F1CC729F71BC70E
:100B600028F7000158DF02C07FF101C07EF10101CA
:100B70007E5302E17F5307E09D8AF28AC00EF21293
:100B8000010E016E0AD007011D2F98D7C00EF21278
:100B90009D8AF28A000E016E010100011200060E0C
:100BA00001019C6FDA0E9B6F380EF66E070EF76E22
:100BB000090E0701156F0001F3DED7C6EAFFD6C69E
:100BC000E9FF02D7430EF66E070EF76E030E07011C
:100BD000156F0001E5DE060EEA6EFD0EE96EF2CF3E
:100BE00015F7F29E0C0E016EF76A000E3BEC01F059
:100BF0000A000900F5CFEEFF012EFBD7070115BF54
:100C0000F28E4F0E096F4B0E0A6F0B6B060E1A6FAA
:100C1000FD0E196F070E1C6F090E1B6F000147DFD9
:100C200001525DE0060EEA6EFD0EE96EF2CF15F799
:100C3000F29E150E016EF76A000E4EEC01F00A00EE
:100C40000900F5CFEEFF012EFBD7070115BFF28E8D
:100C50004F0E126F4B0E136F146B060E1A6FFD0EB4
:100C6000196F070E1C6F120E1B6F000120DF01525F
:100C700036E03E0E0601FD6FFE6B060E07011A6F91
:100C8000DA0E196F060E1C6FFD0E1B6F00010FDFD1
:100C9000015225E0060EEA6EFD0EE96EF2CF15F761
:100CA000F29E070E016EF76A000E66EC01F00A0074
:100CB0000900F5CFEEFF012EFBD7070115BFF28E1D
:100CC000D9C61AF7D8C619F7060E1C6FFD0E1B6F92
:100CD0000001EDDE015203E0010E016E02D0000EB4
:100CE000016E12000601A26BA16B010E9E5DA25364
:100CF000D8A482D0A15DD8B07FD0010EA125A36F6A
:100D0000000EA221A46FA45373E19E51A35D70E273
:100D1000D890A135026EA235036E02509C25E96E73
:100D20009D510320EA6EECCFA6F6ED52EFCFA5F66B
:100D3000D890A335026EA435036E02509C25E96E4F
:100D40009D510320EA6EECCF03F0ED52EFCF01F09E
:100D5000A651035C49E303E10150A55D45E2D8904B
:100D6000A135026EA235036E02509C25E96E9D519D
:100D70000320EA6EECCFA0F6ED52EFCF9FF6D890AD
:100D8000A135026EA235036E02509C25016E9D5165
:100D9000032203C0A6F6D890A335026EA435036ED5
:100DA00002509C25E96E9D510320EA6EECCF03F0C2
:100DB000ED52EFCFA7F6A6C6EAFF01C0E9FF03C0D8
:100DC000ECFFED52A7C6EFFFD890A335026EA43515
:100DD000036E02509C25E96E9D510320EA6EA0C669
:100DE000ECFFED529FC6EFFFA32BD8B4A42B8BD7FB
:100DF000A12BD8B4A22B79D7640E9C25E96E000EE6
:100E00009D21EA6EEFCF01F0E92AEF50E906026E6C
:100E1000000112008E0E006E9DC601F09CC602F00D
:100E2000036A015209E102C001F0026A080E005E85
:100E3000015202E1006A08D0D89001BE04D0023607
:100E400001360006F9D7019E12000601BE51D8B442
:100E500071D0006EC251D8B46DD0002604E3810E6B
:100E6000002668E204D07F0E005E64E363E0BFC644
:100E7000C6F6C351C61BBF8FC38FC151C503F4CF84
:100E8000C8F6C051C403F4CF03F0F3CFC7F6C503CF
:100E9000F350C827F450C723000E0322C151C403E6
:100EA000F350C827F450C723000E026A032202221F
:100EB000BF51C503F350C727F4500322000E02228E
:100EC000BF51C403F3500326F4500222000E016AFE
:100ED0000122C151C303F350C727F4500322000E6F
:100EE00002220122C051C303F3500326F450022210
:100EF000000E0122BF51C303F3500226F450012219
:100F0000002A01BE05D0C737033602360136000677
:100F1000000EC7AF0AD0032A02220122015005E1C8
:100F2000025003E1035001E1002AC6BF018EC6AFA3
:100F3000019E04D0006A016A026A036A000112007D
:100F4000800ED8A202D00601A11B0601A66BA76BDA
:100F50009DC6A5F6A151A51B9C51D8B4DFD0A46FA6
:100F6000006EA051D8B4E3D0A45FD8B483D03EE3E0
:100F7000A1C6AAF6AA8FA2C6A9F6A3C6A8F6A76B11
:100F8000D890AA33A933A833A733A42FF8D7A5AF95
:100F900003D0A681E0D0A691A491A689060EEA6EA0
:100FA0009F0EE96EEBD0A699A5BF0AD0A4A113D0DD
:100FB000AA33A933A833A733002AD8B4C7D00BD09B
:100FC000AABF0CD0D890A737A837A937AA370006F0
:100FD000D8B4BCD0F5D7A68D6DD0A69D9DC6A5F67C
:100FE0009DAF02D0AA8FABD0AA9FA9D0A0C6A4F66D
:100FF000A0C600F09C51A45F9DC6AAF6AA8F9EC60B
:10100000A9F69FC6A8F6A76BD890AA33A933A83330
:10101000A733A42FF8D7A5AF03D0A6839CD0A6935F
:10102000A491A68B060EEA6EA30EE96EA7D0A69B2E
:10103000A5BF0AD0A4A113D0AA33A933A833A733DC
:10104000002AD8B483D00BD0AABF0CD0D890A73731
:10105000A837A937AA370006D8B478D0F5D7A68F15
:1010600029D0A69FA1C6A5F6A1AF02D0AA8F67D0AE
:10107000AA9F65D0A1C6AAF6AA8FA2C6A9F6A3C642
:10108000A8F6A5AF04D0AA9FA68565D0A695A76BA4
:10109000A491060EEA6E9F0EE96E70D0A5BF1CD01B
:1010A0009DC6A5F6A4A106D0AA33A933A833A733B9
:1010B000002A4CE0A7AF0BD0A82B09E1A92B07E130
:1010C000AA2B05E1AA33A933A833002A3FE0A6BD25
:1010D00084D7A6BFC6D71CD0800EAA1BAAAF04D047
:1010E0003AD0A1C6A5F60AD09DC6A5F6AA5306E138
:1010F000A95304E1A85302E1006A21D0AABF08D095
:10110000D890A737A837A937AA37002EF7D71ED00F
:10111000A5AF02D0AA8F13D0AA9F11D0A0C600F00D
:10112000A1C6AAF6A2C6A9F6A3C6A8F608D09CC670
:1011300000F09DC6AAF69EC6A9F69FC6A8F6AAC646
:1011400001F0A9C602F0A8C603F034D0006A016A13
:10115000026A036A2FD0A76BA81FA91FAA1FA71F87
:10116000A72B05E1A82B03E1A92B01E1AA2BA6B12E
:1011700012D7A6B354D7A6B589D7B3D7EF50A827AF
:1011800005E3A92B03E1AA2BD8B4A481ED52EF50BB
:10119000A92703E3AA2BD8B4A481ED52EF50EFBEE8
:1011A00001D0800AAA27D8B0A481A6B9FCD6A6BBD4
:1011B0003ED774D7000112009DC6A4F60601A151C6
:1011C000A41BA4AF05D0D894D8909DBFD8802FD0B1
:1011D0009DC6A4F6A0C6A5F69C51A55F06E0A4AFE7
:1011E00026D0D850010AD86E22D0A1C6A5F69D51AE
:1011F000A55F06E0A4AF1BD0D850010AD86E17D067
:10120000A2C6A5F69E51A55F06E0A4AF10D0D850A7
:10121000010AD86E0CD0A3C6A5F69F51A55F06E0C3
:10122000A4AF05D0D850010AD86E01D0D8900001E3
:1012300012000601BE51B608BE6F036ABFC6C2F6F1
:10124000BF8FD890BF33C033C13303320232013273
:101250000032BE2FF6D7C2AF0BD0001E011E021EF9
:10126000031E002AD8B4012AD8B4022AD8B4032A0B
:101270000001B0EF09F0D8B204D0060EEA6EC60E37
:10128000E96E006A016A026A036A0601C66BC76BEF
:10129000C86BC96BC551C411C311C2112CE0200E1B
:1012A000CA6FD890BE37BF37C037C137C637C737C8
:1012B000C837C937C551C95D08E1C451C85D05E1EA
:1012C000C351C75D02E1C251C65D0FE3C251C65FA3
:1012D000C351D8A0C33DC75FC451D8A0C43DC85FA7
:1012E000C551D8A0C53DC95FD88000360136023649
:1012F0000336CA2FD6D7C6C6EFFFC7C6ECFFC8C68F
:10130000ECFFC9C6ECFF00011200E9500601B66F00
:10131000B551B86F1BE0B4C6C1F6B3C6C0F6B2C6CD
:10132000BFF6B1C6BEF6C56BC46B200EC36F820E8E
:10133000C26F00018ADD03C0B4F602C0B3F601C07B
:10134000B2F600C0B1F60601B82FE5D7B4C6C1F6B3
:10135000B3C6C0F6B2C6BFF6B1C6BEF6000169D7C5
:1013600003C0B4F602C0B3F601C0B2F600C0B1F6D5
:101370000601B4AF0DD0B607B68BB11FB21FB31FB5
:10138000B41FB12BD8B4B22BD8B4B32BD8B4B42B70
:101390003B0EBD6F9A0EBC6FCA0EBB6FBA6B0A0EC6
:1013A000B86FB551D8B4B62BD882060EEA6EB10E1E
:1013B000E96EB4C6C1F6B3C6C0F6B2C6BFF6B1C6D2
:1013C000BEF6BDC6C5F6BCC6C4F6BBC6C3F6BAC635
:1013D000C2F6000150DF0150005213E10601B529A9
:1013E000B85DD8A402D000010CD0B6510DE00F0BAF
:1013F000B85D01E047E2B6BF45D0B6BD05D0200ECE
:101400003AD0200E0601B617B6AB10D0B69BB55138
:10141000D8A4B6070050B66F2D0E0701186F000153
:10142000BFEC04F00601B651006EB66BB551B85D65
:101430000EE10050B66F2E0E0701186F0001BFECD1
:1014400004F00601B651006E200EB617000E300EE5
:10145000B6AB11D0B69BB551D8A4B6070050B66F45
:101460002D0E0701186F0001BFEC04F00601B65104
:10147000006EB66B300E002600C018F70001BFECFE
:1014800004F00601D892BDC6C1F6BCC6C0F6BBC604
:10149000BFF6BAC6BEF6C56BC46BC36B0A0EC26F8D
:1014A0000001E9DE03C0BDF602C0BCF601C0BBF618
:1014B00000C0BAF60601B82F77D700011200939446
:1014C0008A94080E016E00D00000018E10D0019E9B
:1014D00006019E330001D8B08A84D8A08A94018C7A
:1014E00006D0019C012EF4D700D000008A84840E1F
:1014F000E96EE92EFED700D0000001BEE8D701BC9E
:10150000F0D78CEF0AF0EF520FE0EACF9DF6E9CF6B
:101510009CF6EFCF9EF6D3D79DC6EAFF9CC6E9FFA7
:10152000E92AD8B4EA2AEFD732EF0CF00601696B4A
:10153000696B6951630825E3D8906935036A580FD0
:10154000016E050E032201C09CF603C09DF6D890E3
:101550006935036A640FE96E030E0320EA6EECCF6F
:1015600003F0ED52EFCF9EF603C09FF69DC6EAFF53
:1015700001C0E9FF03C0ECFFED529EC6EFFF692BEF
:10158000D8D7050E9D6F580E9C6F640E9E6F00019C
:1015900072EC06F002C09DF601C09CF63BDC03C075
:1015A0008EF102C08DF101C08CF100C08BF10601FB
:1015B000696B6951630825E3D8906935036A580F50
:1015C000016E050E032201C09CF603C09DF6D89063
:1015D0006935036A2C0FE96E040E0320EA6EECCF26
:1015E00003F0ED52EFCF9EF603C09FF69DC6EAFFD3
:1015F00001C0E9FF03C0ECFFED529EC6EFFF692B6F
:10160000D8D7050E9D6F580E9C6F640E9E6F00011B
:1016100072EC06F002C09DF601C09CF60AEC07F0E1
:1016200003C023F602C022F601C021F600C020F656
:101630000601696B695163081EE3D8906935036A36
:10164000580F016E050E032201C09CF603C09DF6E3
:10165000036A6951F40FE96E040E0320EA6EEFCFBE
:101660009EF69DC6EAFF01C0E9FFEC6AED529EC6F8
:10167000EFFF692BDFD7050E9D6F580E9C6F640E30
:101680009E6F000172EC06F002C09DF601C09CF650
:101690000AEC07F003C092F102C091F101C090F191
:1016A00000C08FF192C1C1F691C1C0F690C1BFF6E2
:1016B0008FC1BEF6F10E0601C56FF00EC46F700E3D
:1016C000C36F7A0EC26F000125EC07F003C092F1E0
:1016D00002C091F101C090F100C08FF1D8828EC19B
:1016E0009FF68DC19EF68CC19DF68BC19CF623C6DC
:1016F000A3F622C6A2F621C6A1F620C6A0F620DCDB
:1017000003C09AF102C099F101C098F100C097F1AD
:10171000D8829AC19FF699C19EF698C19DF697C14D
:101720009CF696C1A3F695C1A2F694C1A1F693C109
:10173000A0F606DC03C09FF602C09EF601C09DF62F
:1017400000C09CF603C0C1F602C0C0F601C0BFF6DF
:1017500000C0BEF60601C56B800EC46F310EC36FAC
:10176000870EC26F000125EC07F003C08EF102C0A6
:101770008DF101C08CF100C08BF106019F6B800ED2
:101780009E6FBB0E9D6F880E9C6F8EC1A3F68DC1A0
:10179000A2F68CC1A1F68BC1A0F600010DDD19E304
:1017A0008EC19FF68DC19EF68CC19DF68BC19CF6B5
:1017B0000601A36B800EA26F3B0EA16F880EA06F77
:1017C0000001FADC06E301018E6B8D6B8C6B8B6B79
:1017D0000001F29CF29EF2BEFDD7060E01019C6F45
:1017E0006A0E9B6F320EF66E090EF76E0A0E070137
:1017F000156F0001D0EC04F0050EE96E8EC1B4F651
:101800008DC1B3F68CC1B2F68BC1B1F60601B56BD2
:1018100000017BDD410EF66E090EF76E090E070121
:10182000156F0001D0EC04F0890EE96E92C1B4F698
:1018300091C1B3F690C1B2F68FC1B1F6020E0601A6
:10184000B56F000162DD4F0EF66E090EF76E030EE6
:101850000701156F0001D0EC04F0060EEA6E6A0E67
:10186000E96E51D6C00EF21204EF15F00301626961
:1018700063695F6B5E6B5F6B5E6B5F5318E15E511C
:101880000E0815E3CE0E5E25E96E010E5F21EA6EAD
:101890006251EF5C08E2F40E5E25E96E040E5F21F2
:1018A000EA6EEFCF62F35E2BD8B45F2BE6D7000170
:1018B0000BEF15F0EA6AE80EE96EE26A520EE16E8D
:1018C000E752E6CFEEFFFCE1060EEA6E690EE96E26
:1018D000F2CF78F6F29E000E57EC00F00A000900F5
:1018E000F550EE6E0009FBE1060178BFF28E0701AC
:1018F000276BE80E266F060E296F690E286F000110
:101900000BEC05F002C07FF101C07EF101017E53B6
:1019100002E17F5303E0010E016E2DD0060EEA6E48
:10192000690EE96EF2CF78F6F29E000E000167ECC8
:1019300000F00A000900F550EE6E0009FBE1060117
:1019400078BFF28E0701276BE80E266F060E296F0F
:10195000690E286F00010BEC05F002C07FF101C099
:101960007EF101017E5302E17F5303E0020E016E1E
:1019700002D0000E016E00011200060EEA6EB10EDA
:10198000E96EF2CFC9F6F29E0C0E016EF76A000EF8
:101990003BEC01F00A000900F5CFEEFF012EFBD76A
:1019A0000601C9BFF28E4F0EBD6F4B0EBE6FBF6BEF
:1019B000060E07011A6FB10E196F060E1C6FBD0ED1
:1019C0001B6F000157EC05F001522BE0060EEA6E8A
:1019D000B10EE96EF2CFC9F6F29E170E016EF76AEC
:1019E000000E77EC01F00A000900F5CFEEFF012EA2
:1019F000FBD70601C9BFF28EC86B060E07011A6F2E
:101A0000B10E196F060E1C6FC80E1B6F000157EC4C
:101A100005F0015206E001018283010E016E04D03F
:101A20000001000E016E01010001E0EF14F006015B
:101A3000B56BB56BB151B55D1AE2036AB551B3250B
:101A4000016EB451032203C0B7F6B251B525036A43
:101A5000E80FE96E000E0320EA6EEFCFB8F6B7C6C6
:101A6000EAFF01C0E9FFB8C6EFFFB52BE3D7036A71
:101A7000B551B325E96EB4510320EA6EEF6A000157
:101A800012004F500F0DF3CFB3F60601B46B4F5059
:101A9000030803E1000E016E52D00701276B1D0EF3
:101AA000266FB2C629F7B1C628F700010BEC05F086
:101AB00002C051F001C050F050523EE151523CE1A1
:101AC000036A0601B3511D0FE96E000E0320EA6E92
:101AD0003E0EEF6E010EB327036AB451B125E96ED5
:101AE000B2510320EA6EEF521AE0036AB3511D0FA0
:101AF000016E000E032203C0B6F6036AB451B1258D
:101B0000E96EB2510320EA6EEFCFB7F6B6C6EAFF30
:101B100001C0E9FFB7C6EFFFB42BB32BDDD7036AD3
:101B2000B3511D0FE96E000E0320EA6EEF6A4F2AD3
:101B3000010E016E04D00001000E016E06010001CD
:101B4000FDEF11F0016603D0026602D007D0022A31
:101B500000C0EEFF012EFCD7022EFAD712004F6A0A
:101B6000EA6A1D0EE96E006A026A320E016EEADF51
:101B700041EF12F00601D66BD76B010EEA6EA10E93
:101B8000E96E006A026A280E016E0001DBDF4C0E6E
:101B90000101A16F4F0EA26F430EA36F410EA46F00
:101BA000540EA56F450EA66F3A0EA76F200EA86FB4
:101BB000080E0601D76F160ED66FD65120081AE30D
:101BC000036AD751A10F016E010E032203C0D9F69B
:101BD000036AD651520FE96E000E0320EA6EEFCF72
:101BE000DAF6D9C6EAFF01C0E9FFDAC6EFFFD72B64
:101BF000D62BE3D70B0ED66FD65115081AE3036A1E
:101C0000D751A10F016E010E032203C0D9F6036A5A
:101C1000D651520FE96E000E0320EA6EEFCFDAF6CE
:101C2000D9C6EAFF01C0E9FFDAC6EFFFD72BD62BF2
:101C3000E3D7D751D72B036AA10FE96E010E03201A
:101C4000EA6E200EEF6ED751D72B036AA10FE96E13
:101C5000010E0320EA6E520EEF6ED751D72B036AA6
:101C6000A10FE96E010E0320EA6E3D0EEF6E210E0C
:101C7000D66FD65123081AE3036AD751A10F016E1C
:101C8000010E032203C0D9F6036AD651520FE96E42
:101C9000000E0320EA6EEFCFDAF6D9C6EAFF01C0E4
:101CA000E9FFDAC6EFFFD72BD62BE3D7D751D72BD7
:101CB000036AA10FE96E010E0320EA6E6D0EEF6E4E
:101CC000036AD751A10FE96E010E0320EA6EEF6A95
:101CD0000001F0EF0FF0060EEA6EB30EE96EF2CFE0
:101CE000D6F6F29E0C0E016EF76A000E3BEC01F088
:101CF0000A000900F5CFEEFF012EFBD70601D6BF83
:101D0000F28E4F0EBF6F4B0EC06FC16B060E0701F8
:101D10001A6FB30E196F060E1C6FBF0E1B6F0001FA
:101D200057EC05F00152D8B493D1060EEA6EB30E0B
:101D3000E96EF2CFD6F6F29E0D0E016EF76A000E36
:101D400090EC01F00A000900F5CFEEFF012EFBD761
:101D50000601D6BFF28E4F0EC06F4B0EC16FC26B25
:101D6000060E07011A6FB30E196F060E1C6FC00E18
:101D70001B6F000157EC05F00152D8B469D1060E73
:101D8000EA6EB30EE96EF2CFD6F6F29E200E016E29
:101D9000F76A000EA4EC01F00A000900F5CFEEFF8F
:101DA000012EFBD70601D6BFF28E4F0ED36F4B0E1E
:101DB000D46FD56B060E07011A6FB30E196F060E9E
:101DC0001C6FD30E1B6F000157EC05F00152D8B405
:101DD0003FD1060EEA6EB30EE96EF2CFD6F6F29E52
:101DE0001D0E016EF76A000EC1EC01F00A00090039
:101DF000F5CFEEFF012EFBD70601D6BFF28E4F0EB8
:101E0000D06F4B0ED16FD26B060E07011A6FB30E57
:101E1000196F060E1C6FD00E1B6F000157EC05F0FA
:101E20000152D8B415D1060EEA6EB30EE96EF2CFA8
:101E3000D6F6F29E0F0E016EF76A000EDDEC01F091
:101E40000A000900F5CFEEFF012EFBD70601D6BF31
:101E5000F28E4F0EC26F4B0EC36FC46B060E07019E
:101E60001A6FB30E196F060E1C6FC20E1B6F0001A6
:101E700057EC05F00152D8B4EBD0060EEA6EB30E63
:101E8000E96EF2CFD6F6F29E0F0E016EF76A000EE3
:101E9000F2EC01F00A000900F5CFEEFF012EFBD7AE
:101EA0000601D6BFF28E060EEA6EC20EE96EF2CFC2
:101EB000D8F6F29E080E016EF76A000E000107ECDC
:101EC00002F00A000900F5CFEEFF012EFBD7060154
:101ED000D8BFF28E060E07011A6FB30E196F060EE9
:101EE0001C6FC20E1B6F000157EC05F00152D8B4F5
:101EF000AFD0060EEA6EB30EE96EF2CFD6F6F29EC2
:101F0000110E016EF76A000E18EC02F00A000900CB
:101F1000F5CFEEFF012EFBD70601D6BFF28E060EDF
:101F2000EA6EC40EE96EF2CFD8F6F29E0A0E016E8A
:101F3000F76A000E00012EEC02F00A000900F5CF4E
:101F4000EEFF012EFBD70601D8BFF28E060E070169
:101F50001A6FB30E196F060E1C6FC40E1B6F0001B3
:101F600057EC05F0015274E0060EEA6EB30EE96E0E
:101F7000F2CFD6F6F29E0E0E016EF76A000E40EC1E
:101F800002F00A000900F5CFEEFF012EFBD7060193
:101F9000D6BFF28E060EEA6EC10EE96EF2CFD8F60B
:101FA000F29E070E016EF76A000E000154EC02F07B
:101FB0000A000900F5CFEEFF012EFBD70601D8BFBE
:101FC000F28E060E07011A6FB30E196F060E1C6F04
:101FD000C10E1B6F000157EC05F0015239E0CAD564
:101FE000B2C6D7F6B1C6D6F6010E0601D96FA10E5C
:101FF000D86F0001CFEC05F0060EEA6EB30EE96E65
:10200000F2CFD6F6F29E0F0E016EF76A000E65EC67
:1020100002F00A000900F5CFEEFF012EFBD7060102
:10202000D6BFF28E4F0EC26F4B0EC36FC46B060E3F
:1020300007011A6FB30E196F060E1C6FC20E1B6FCD
:10204000000157EC05F0015203E0010E016E29D0AA
:10205000060EEA6EB30EE96EF2CFD6F6F29E0F0EC2
:10206000016EF76A000E65EC02F00A000900F5CF78
:10207000EEFF012EFBD70601D6BFF28E4F0EC26FC8
:102080004B0EC36FC46B060E07011A6FB30E196FA8
:10209000060E1C6FC20E1B6F000157EC05F0000E00
:1020A000016EE0EF14F00601CD6BCE6B010ECF6F29
:1020B000DA6AD96A060ED26FC50ED16F060EEA6EC5
:1020C000C90EE96ED2C6E2FFD1C6E1FFCFC6D0F697
:1020D000D890E550EE02F350CD23F450CE23D02F0C
:1020E000F7D7CDC6DEFFCEC6CDF6CE6BD8B0CE2BA1
:1020F000D12BD8B4D22BCF2BCF510508DFE1000173
:1021000012000601B86BB76BB66BB56BB96BBD6BE4
:10211000BC6BBB6B010EBA6FBE6BB35361E0B951C0
:10212000B425036AB125E96EB2510320EA6EEF507F
:102130002E0854E0B307B3C6BEF6BD6BBC6BBB6BD9
:10214000010EBA6FBE531AE0BDC6C8F6BCC6C7F6CC
:10215000BBC6C6F6BAC6C5F6CC6BCB6BCA6B0A0E4D
:10216000C96F0001A0DF03C0BDF602C0BCF601C00C
:10217000BBF600C0BAF60601BE07E4D7B951B425D4
:10218000036AB125E96EB2510320EA6E300EEF5CAE
:10219000C26BC16BC06BBF6FEACFC4F6E9CFC3F6A9
:1021A000C2C6C8F6C1C6C7F6C0C6C6F6C56FBDC6AC
:1021B000CCF6BCC6CBF6BBC6CAF6BAC6C9F6000199
:1021C00072DFC4C6EAFFC3C6E9FF00500601B527A7
:1021D0000150B6230250B7230350B823B92B9DD723
:1021E000B5C600F0B6C601F0B7C602F0B8C603F037
:1021F00000011200E9500601B56F3B0EBC6F9A0E4C
:10220000BB6FCA0EBA6FB96B0A0EB76FD882060ED3
:10221000EA6EB10EE96EB4C6C1F6B3C6C0F6B2C678
:10222000BFF6B1C6BEF6BCC6C5F6BBC6C4F6BAC6D6
:10223000C3F6B9C6C2F600013BEC09F001500052EA
:1022400013E10601B751010AD8A402D000010CD055
:10225000B5510CE00F0BB75D01E010E2B5BF0ED039
:10226000B5BD04D0200E03D00601B56B300E00269C
:1022700000C018F70001BFEC04F00601D892BCC6FC
:10228000C1F6BBC6C0F6BAC6BFF6B9C6BEF6C56BC8
:10229000C46BC36B0A0EC26F00013BEC09F003C0B4
:1022A000BCF602C0BBF601C0BAF600C0B9F6060122
:1022B000B72FACD700011200F29CF29EF2BEFDD700
:1022C00006016951010A000103E0030A04E078D322
:1022D000BDEF0CF075D3060EEA6E6A0EE96EF2CF12
:1022E000B1F6F29E000E77EC00F00A000900F550FE
:1022F000EE6E0009FBE10601B1BFF28E0701276B0C
:10230000E80E266F060E296F6A0E286F00010BEC8F
:1023100005F002C07FF101C07EF101017E5302E1B0
:102320007F532FE00E0E0601B16F190EB26F060E2D
:10233000B46F790EB36F000117EC0DF0060EEA6E64
:102340008D0EE96EF2CFB1F6F29E0C0E016EF76AB9
:10235000000E87EC00F00A000900F5CFEEFF012E19
:10236000FBD70601B1BFF28E060ED76F790ED66F7E
:10237000060ED96F8D0ED86F0001CFEC05F020D37B
:102380000101060EEA6E6A0EE96EF2CFB1F6F29E18
:10239000000E00019AEC00F00A000900F550EE6E04
:1023A0000009FBE10601B1BFF28E0701276BE80EC1
:1023B000266F060E296F6A0E286F00010BEC05F0E0
:1023C00002C07FF101C07EF101017E5302E17F5323
:1023D0002DE00E0E0601B16F4B0EB26F060EB46FFC
:1023E000790EB36F000117EC0DF0060E0601B26F07
:1023F000790EB16F000141EF0DF00E0E0601B16FC5
:10240000190EB26F060EB46F790EB36F000117ECA0
:102410000DF0060E0601D76F790ED66FD96B1D0E23
:10242000D86F0001CFEC05F0CBD20101060EEA6EA9
:102430006A0EE96EF2CFB1F6F29E000E0001ABEC2F
:1024400000F00A000900F550EE6E0009FBE10601FC
:10245000B1BFF28E0701276BE80E266F060E296FBB
:102460006A0E286F00010BEC05F002C07FF101C07D
:102470007EF101017E5302E17F5332E00001AFEFB4
:102480000DF00E0E0601B16F190EB26F060EB46F8D
:10249000790EB36F000117EC0DF0060EEA6E990E7F
:1024A000E96EF2CFB1F6F29E0D0E016EF76A000EE4
:1024B000BCEC00F00A000900F5CFEEFF012EFBD7BF
:1024C0000601B1BFF28E060ED76F790ED66F060EDB
:1024D000D96F990ED86F0001CFEC05F071D20101D0
:1024E000060EEA6E6A0EE96EF2CFB1F6F29E000EAB
:1024F0000001D0EC00F00A000900F550EE6E000972
:10250000FBE10601B1BFF28E0701276BE80E266FD3
:10251000060E296F6A0E286F00010BEC05F002C051
:102520007FF101C07EF101017E5302E17F5316E08D
:102530000E0E0601B16F190EB26F060EB46F790E52
:10254000B36F000117EC0DF0060E0601B26F790EA5
:10255000B16F00016BEF0EF033D20101060EEA6E8F
:102560006A0EE96EF2CFB1F6F29E000E0001E3ECC6
:1025700000F00A000900F550EE6E0009FBE10601CB
:10258000B1BFF28E0701276BE80E266F060E296F8A
:102590006A0E286F00010BEC05F002C07FF101C04C
:1025A0007EF101017E5302E17F5358E00E0E0601D9
:1025B000B16F190EB26F060EB46F790EB36F0001D2
:1025C00017EC0DF07FC1B2F67EC1B1F6060E060122
:1025D000B36F070EB46F000194DD03C086F102C033
:1025E00085F101C084F100C083F1EA6AE80EE96E6A
:1025F000006A026A960E016EA2EC0DF001019C6B5E
:10260000E80E9B6F940EF66E060EF76E120E070123
:10261000156F0001D0EC04F0410EE96E86C1B4F6EE
:1026200085C1B3F684C1B2F683C1B1F6E3DDA90E6C
:10263000F66E060EF76E030E0701156F0001D0EC63
:1026400004F0060E0601D76F790ED66FD96BE80E2F
:10265000D86F0001CFEC05F0B3D10101060EEA6E90
:102660006A0EE96EF2CFB1F6F29E000E0001F4ECB4
:1026700000F00A000900F550EE6E0009FBE10601CA
:10268000B1BFF28E0701276BE80E266F060E296F89
:102690006A0E286F00010BEC05F002C07FF101C04B
:1026A0007EF101017E5302E17F5358E00E0E0601D8
:1026B000B16F190EB26F060EB46F790EB36F0001D1
:1026C00017EC0DF07FC1B2F67EC1B1F6030E060124
:1026D000B36F070EB46F000114DD03C08AF102C0AE
:1026E00089F101C088F100C087F1EA6AE80EE96E5D
:1026F000006A026A960E016EA2EC0DF001019C6B5D
:10270000E80E9B6FAE0EF66E060EF76E160E070104
:10271000156F0001D0EC04F0410EE96E8AC1B4F6E9
:1027200089C1B3F688C1B2F687C1B1F663DDC70EC1
:10273000F66E060EF76E040E0701156F0001D0EC61
:1027400004F0060E0601D76F790ED66FD96BE80E2E
:10275000D86F0001CFEC05F033D10101060EEA6E0F
:102760006A0EE96EF2CFB1F6F29E000E000105ECA2
:1027700001F00A000900F550EE6E0009FBE10601C8
:10278000B1BFF28E0701276BE80E266F060E296F88
:102790006A0E286F00010BEC05F002C07FF101C04A
:1027A0007EF101017E5303E17F53D8B49CD00E0E1D
:1027B0000601B16F190EB26F060EB46F790EB36FCA
:1027C000000117EC0DF0EA6AE80EE96E006A026A91
:1027D000960E016EA2EC0DF001019C6BE80E9B6F52
:1027E000CC0EF66E060EF76E160E0701156F000181
:1027F000D0EC04F0410EE96E8AC1B4F689C1B3F69B
:1028000088C1B2F687C1B1F6F5DCE50EF66E060EAC
:10281000F76E190E0701156F0001D0EC04F0410EA0
:10282000E96E86C1B4F685C1B3F684C1B2F683C140
:10283000B1F6E0DC010EF66E070EF76E160E07011C
:10284000156F0001D0EC04F0050EE96E8EC1B4F6F0
:102850008DC1B3F68CC1B2F68BC1B1F60601B56B72
:10286000000185EC09F01C0EF66E070EF76E140ED3
:102870000701156F0001D0EC04F0890EE96E92C1DA
:10288000B4F691C1B3F690C1B2F68FC1B1F6020EA3
:102890000601B56F000185EC09F0200E0701186FE5
:1028A0000001BFEC04F0560E0701186F0001BFECE9
:1028B00004F0060E0601D76F790ED66FD96BE80EBD
:1028C000D86F0001CFEC05F04F520BE0060E060169
:1028D000D76F790ED66FD96B1D0ED86F0001CFEC74
:1028E00005F06ED00101060EEA6E6A0EE96EF2CFB7
:1028F000B1F6F29E000E000116EC01F00A0009008C
:10290000F550EE6E0009FBE10601B1BFF28E070142
:10291000276BE80E266F060E296F6A0E286F0001DE
:102920000BEC05F002C07FF101C07EF101017E5386
:1029300002E17F5344E00E0E0601B16F190EB26F33
:10294000060EB46F790EB36F000117EC0DF09AC14B
:1029500096F199C195F198C194F197C193F1060E42
:10296000EA6EA60EE96EF2CFB1F6F29E0B0E016E84
:10297000F76A000E28EC01F00A000900F5CFEEFF1F
:10298000012EFBD70601B1BFF28E060ED76F790E6E
:10299000D66F060ED96FA60ED86F0001CFEC05F0EA
:1029A0004F520BE0060E0601D76F790ED66FD96B2A
:1029B0001D0ED86F0001CFEC05F002D0010100011F
:1029C0001200C80E0701246F0001AAEC04F0EA6AA5
:1029D000520EE96E006A026A960E016EA2EC0DF0CC
:1029E000EA6AE80EE96E006A026A960E016EA2ECCF
:1029F0000DF001018291C00EF212F28A9D8A00014F
:102A00005FEF15F096EF0AF0010182AB05D0829BD3
:102A1000000136EF0CF0010182A152D0F29CF29E2F
:102A2000F2BEFDD700015AEC0CF001C0CDF101015E
:102A3000CD5305E0CDC169F600013EDC010182A362
:102A40003BD0F29CF29EF2BEFDD7829300015AEC7D
:102A50000CF001C0CDF1CDC169F62EDC640E07018A
:102A6000246F0001AAEC04F0060EEA6E580EE96E1F
:102A7000F2CF69F6F29E0E0E016EF76A000EA2EC1E
:102A800002F00A000900F5CFEEFF012EFBD7060188
:102A900069BFF28E4F0E666F4B0E676F686B060E46
:102AA00007011A6F580E196F060E1C6F660E1B6F0A
:102AB000000157EC05F00101CD6B000182D7010147
:102AC00000012DEF17F0B60E006E036A026A016A6C
:102AD00006019751981199119A1102E1006A0DD0DF
:102AE000D89001BE09D09737983799379A3703366F
:102AF00002360136002EF4D7019E0001BBEF15F01F
:102B000006019A6B9B6B97514F5CD8A025D09751CB
:102B10000F0DF350010F9A6F010E97250F0DF35013
:102B20009A5D1AE2036A9B519825016E995103221E
:102B300003C09DF6036A9A511D0FE96E000E032033
:102B4000EA6EEFCF9EF69DC6EAFF01C0E9FF9EC682
:102B5000EFFF9B2B9A2BE0D7000122EF16F0060126
:102B6000256B86C19AF685C199F684C198F683C112
:102B700097F60001A8D703C09FF602C09EF601C0D9
:102B80009DF600C09CF68EC1A3F68DC1A2F68CC145
:102B9000A1F68BC1A0F6DCEC08F0D8A078D0060135
:102BA000242B24510108D8B072D04F52D8B46FD022
:102BB0000101875309E1885307E1895305E18A53ED
:102BC000D8A402D0060163D0010E06012627D8B092
:102BD000272BD8B4282BD8B4292BF29801018A517D
:102BE0000601295D53E311E1010189510601285DC8
:102BF0004DE30BE1010188510601275D47E305E143
:102C0000010187510601265D41E3296B286B276B83
:102C1000266B246B256B4F50255D38E2060EEA6E5D
:102C20002A0EE96E006A026A140E016E0001A2EC1F
:102C30000DF025C697F6060E0601996F2A0E986FBD
:102C400000015ED7060EEA6E580EE96EF2CF97F6D7
:102C5000F29E3F0E016EF76A000EB6EC02F00A001B
:102C60000900F5CFEEFF012EFBD7060197BFF28ECC
:102C7000060ED76F2A0ED66F060ED96F580ED86F74
:102C80000001CFEC05F00601252BC5D7F288000125
:102C900033EF17F0F86AD09E078E166AB886220EB8
:102CA000AF6E000EB06EA60EAC6E900EAB6E93942F
:102CB0008A8401017F6B7E6B860E816FA00E806F10
:102CC0009C6B9B6BA06B6A0E9F6FCF0E9E6FC00EAE
:102CD0009D6F829182958297CA6BC96BCC6BCB6BCF
:102CE000CD6B82938299829B829D03015F6B5E6BA9
:102CF000606B616B626963690101829F0601236BEE
:102D0000226B216B206B01018E6B8D6B8C6B8B6B3F
:102D1000926B916B906B8F6B966B956B946B936BC7
:102D20009A6B996B986B976B866B856B0B0E846FA8
:102D3000B80E836F4F6A0601246B256B01018A6B05
:102D4000896B886B010E876F0601296B286B276BD7
:102D5000266FC150C00B0F09C16E070EB46E176A03
:102D6000186A0E0E926E090E936E800E946E000E0F
:102D7000956EC150C00B0B09C16EC050C00BC06E28
:102D8000C08EC280040E016EC250C30B0110C26E11
:102D9000D190C30ED56ED76A060ED66EF19CF28A1C
:102DA0009D8AC00EF2128C94080E586FFA0E07011D
:102DB000246F0001AAEC04F00601582FF7D78C8489
:102DC0003C0E586FFA0E0701246F0001AAEC04F0C4
:102DD0000601582FF7D7060EEA6E3E0EE96EF2CFC7
:102DE00058F6F29E0D0E016EF76A000E00017AECA5
:102DF00002F00A000900F5CFEEFF012EFBD7060115
:102E000058BFF28E060EEA6E4B0EE96EF2CF5AF6FE
:102E1000F29E0D0E016EF76A000E00018EEC02F0BC
:102E20000A000900F5CFEEFF012EFBD706015ABFBD
:102E3000F28E060ED76F3E0ED66F060ED96F4B0E72
:102E4000D86F0001CFEC05F0F288F19CF2920101FD
:102E500082A504D082950001D5D5010182A704D0B6
:0C2E6000829700017CD60101F3D703002B
:020000040030CA
:0E0000003BCE3E1E0087A1000FC00FE00F4058
:00000001FF
;PIC18F4550
;CRC=6B7A  CREATED="10-nov-18 21:02"
