:100000005FEF06F0FFEF06F0046ED8CF05F0E0CF0B
:1000100006F00001E9CF0CF0EACF07F0E1CF08F0DD
:10002000E2CF09F0D9CF0AF0DACF0BF0F3CF12F01C
:10003000F4CF13F0FACF14F000C00EF001C00FF0AF
:1000400002C010F003C011F09DAA2AEF00F09EBA82
:1000500066EF01F0F2AA30EF00F0F2B4CBEF01F05E
:100060000EC000F00FC001F010C002F011C003F08C
:100070000CC0E9FF07C0EAFF078E08C0E1FF09C016
:10008000E2FF0AC0D9FF0BC0DAFF12C0F3FF13C0B2
:10009000F4FF14C0FAFF045006C0E0FF05C0D8FF0B
:1000A0001000F2CF0DF0F29EF76ABC0FF66E000E54
:1000B000F7220900F5500DBEF28E12002B434D546D
:1000C0004900F2CF0DF0F29EF76ADC0FF66E000EDB
:1000D000F7220900F5500DBEF28E12002B434D475A
:1000E0004C00F2CF0DF0F29EF76AFC0FF66E000E98
:1000F000F7220900F5500DBEF28E12004F4954410F
:100100004900F2CF0DF0F29EF76A1C0FF66E010E59
:10011000F7220900F5500DBEF28E120048454152FB
:100120005442454154282900F2CF0DF0F29EF76A5F
:10013000420FF66E010EF7220900F5500DBEF28E49
:1001400012002B4E554D41444400F2CF0DF0F29E6B
:10015000F76A640FF66E010EF7220900F5500DBE26
:10016000F28E12002B4E554D44454C00F2CF0DF04F
:10017000F29EF76A860FF66E010EF7220900F5501F
:100180000DBEF28E12004F4B20434C454152204190
:100190004C4C0000F2CF0DF0F29EF76AAE0FF66EF7
:1001A000010EF7220900F5500DBEF28E12004154E7
:1001B0002B434D47463D310D0A00F2CF0DF0F29E24
:1001C000F76AD40FF66E010EF7220900F5500DBE46
:1001D000F28E120041542B43534D503D31372C3297
:1001E00035352C302C300D0A0000F2CF0DF0F29E88
:1001F000F76A040FF66E020EF7220900F5500DBEE5
:10020000F28E12002B434D47533A0000F2CF0DF00F
:10021000F29EF76A260FF66E020EF7220900F550DD
:100220000DBEF28E120041542B434D474C3D2252DD
:10023000454320554E52454144220D0A0000F2CF5D
:100240000DF0F29EF76A580FF66E020EF7220900C3
:10025000F5500DBEF28E1200303331393935383257
:10026000323733390000F2CF0DF0F29EF76A800F7B
:10027000F66E020EF7220900F5500DBEF28E120046
:10028000494E494349414E444F2E2E2E0000F2CF95
:100290000DF0F29EF76AA80FF66E020EF722090023
:1002A000F5500DBEF28E120041542B434D47443D94
:1002B000312C310D0A009EAAFED7ABCF16F0AECF7F
:1002C00001F016A202D0AB98AB881200010E020119
:1002D000476F9EAA54D0010182A102D002014FD0E3
:1002E0000001E9DF01C048F2020148513E0809E07F
:1002F00048512B0806E048510A0803E048510D0810
:100300003EE148C252F04751940829E3010180536D
:1003100005E18153D8A402D0020121D09EAA19D0B0
:100320000001C9DF01C048F2036A02014751520FC0
:10033000E96E000E0320EA6E48C2EFFF48513B0809
:1003400002E1472B0CD0472B860E0101816FA00ED6
:10035000806F8051D8B4810780070201D4D79D8A6D
:1003600001018281860E816FA00E806F036A0201F7
:100370004751520FE96E000E0320EA6EEF6A9E9A13
:10038000000130EF00F041542B434D47533D2225EF
:1003900073220D0A0000D76A060ED66E0101892B62
:1003A000D8B48A2B8951E80812E18A5103080FE179
:1003B0008B2BD8B48C2B8A6B896B828589728B517D
:1003C0003C0805E18C5303E18C6B8B6B8287F294C4
:1003D000000130EF00F0010EEA6EB90EE96EEF5049
:1003E0000EE0050E016E006A002EFED7012EFBD72F
:1003F0002E0E006E002EFED700D0EF2EF2D7120088
:1004000088C1EAFF87C1E9FF020130C2EFFFE92A94
:10041000D8B4EA2AEF6A0101872BD8B4882B0001EF
:1004200012000900F6CF2EF2F7CF2FF2F5CF30F2FF
:10043000E7DF2EC2F6FF2FC2F7FF02012D2F01D0FA
:1004400002D00001EED700011200EF520FE0EACF18
:100450002EF2E9CF2DF2EFCF30F2D2DF2EC2EAFF3B
:100460002DC2E9FFE92AD8B4EA2AEFD727EF03F033
:10047000EF5210E0EACF3DF2E9CF3CF2EF509EA8F8
:10048000FED7AD6E3DC2EAFF3CC2E9FFE92AD8B40F
:10049000EA2AEED7AEEF02F03FC203F002013EC2FD
:1004A000E9FF3FC2EAFFEF5239E03FC243F23EC2EA
:1004B00042F241C245F240C244F245C203F044C296
:1004C000E9FF45C2EAFFEF5216E042C2E9FF43C22C
:1004D000EAFFEFCF46F245C203F044C2E9FF45C24E
:1004E000EAFFEF50465D07E1422BD8B4432B442B83
:1004F000D8B4452BE2D745C203F044C2E9FF03C09C
:10050000EAFFEF5205E13EC201F03FC202F009D01E
:100510003E2BD8B43F2B0001BFD70201000E016E65
:10052000026E000112009EA8FED7AD6ED0EF02F061
:10053000020E0201356FF29A9D8AC00EF21201017D
:10054000866B6A0E856FCF0E846FC00E836F8291AB
:1005500032C2EAFF31C2E9FF00018AD72B0E020145
:10056000366F430E376F4D0E386F470E396F530E8F
:100570003A6F3B6B34C23FF233C23EF2020E416F20
:10058000360E406F000188DF02C03FF201C03EF22C
:1005900002013E5302E13F530CE01A0E0001C3D7A3
:1005A0000D0E9EA8FED7AD6E0A0E9EA8FED7AD6EAC
:1005B0000201010182B110D0FF0E8327D8A0842749
:1005C000D8A08527D8A086278353F4E18453F2E18D
:1005D0008553F0E18653EEE182A11AD002013F6B10
:1005E000520E3E6F34C241F233C240F2000154DF7A
:1005F00002C07FF101C07EF101017E5302E17F5311
:1006000007E09D8AF28AC00EF212010E016E0AD036
:100610000201352F94D7C00EF2129D8AF28A000E85
:10062000016E010100011200010E0101886FF70E39
:10063000876F860EF66E030EF76E090E02012D6FA0
:100640000001EFDEF4C1EAFFF3C1E9FFFED6910E2F
:10065000F66E030EF76E030E02012D6F0001E1DE50
:10066000020EEA6E150EE96EF2CF2DF2F29E0C0E1E
:10067000016EF76A000E8EDD0A000900F5CFEEFF6D
:10068000012EFBD702012DBFF28E4F0E216F4B0EB4
:10069000226F236B020E326F150E316F020E346F14
:1006A000210E336F000144DF015259E0020EEA6E61
:1006B000150EE96EF2CF2DF2F29E016EF76A000E72
:1006C0007CDD0A000900F5CFEEFF012EFBD7020109
:1006D0002DBFF28E4F0E2A6F4B0E2B6F2C6B020E1E
:1006E000326F150E316F020E346F2A0E336F000118
:1006F0001FDF015234E03E0E0201156F166B010E32
:10070000326FF70E316F020E346F150E336F00012A
:100710000FDF015224E0020EEA6E150EE96EF2CFF1
:100720002DF2F29E070E016EF76A000E5EDD0A00E2
:100730000900F5CFEEFF012EFBD702012DBFF28E8F
:10074000F6C132F2F5C131F2020E346F150E336F7D
:100750000001EEDE015203E0010E016E02D0000E38
:10076000016E1200EA6AE80EE96EE26A520EE16E6C
:10077000E752E6CFEEFFFCE1010EEA6EB90EE96E3C
:10078000F2CFC8F1F29E000E8CDC0A000900F55091
:10079000EE6E0009FBE10101C8BFF28E02013F6B62
:1007A000E80E3E6F010E416FB90E406F000174DE1E
:1007B00002C07FF101C07EF101017E5302E17F534F
:1007C00003E0010E016E2BD0010EEA6EB90EE96E48
:1007D000F2CFC8F1F29E000E000173DC0A0009009E
:1007E000F550EE6E0009FBE10101C8BFF28E020177
:1007F0003F6BE80E3E6F010E416FB90E406F000176
:100800004BDE02C07FF101C07EF101017E5302E1A7
:100810007F5303E0020E016E02D0000E016E000154
:100820001200010EEA6EF10EE96EF2CF09F2F29EAD
:100830000C0E016EF76A000EADDC0A000900F5CF60
:10084000EEFF012EFBD7020109BFF28E4F0E010110
:10085000FD6F4B0EFE6FFF6B010E0201326FF10E4A
:10086000316F010E346FFD0E336F000161DE0152F6
:1008700028E0010EEA6EF10EE96EF2CF09F2F29E67
:10088000170E016EF76A000EC1DC0A000900F5CFF1
:10089000EEFF012EFBD7020109BFF28E086B010E9D
:1008A000326FF10E316F020E346F080E336F00019C
:1008B0003FDE015206E001018283010E016E04D089
:1008C0000001000E016E010100010CEF06F00101B4
:1008D000F56BF56BF151F55D1AE2036AF551F325FD
:1008E000016EF451032203C0F7F1F251F525036ABA
:1008F000E80FE96E000E0320EA6EEFCFF8F1F7C1C2
:10090000EAFF01C0E9FFF8C1EFFFF52BE3D7036A67
:10091000F551F325E96EF4510320EA6EEF6A000108
:1009200012004F500F0DF3CFF3F10101F46B4F5054
:10093000030803E1000E016E51D002013F6B1D0E52
:100940003E6FF2C141F2F1C140F20001A5DD02C0EB
:1009500051F001C050F050523EE151523CE1036A67
:100960000101F3511D0FE96E000E0320EA6E3E0EE9
:10097000EF6E010EF327036AF451F125E96EF2518F
:100980000320EA6EEF521AE0036AF3511D0F016E65
:10099000000E032203C0F6F1036AF451F125E96E5B
:1009A000F2510320EA6EEFCFF7F1F6C1EAFF01C082
:1009B000E9FFF7C1EFFFF42BF32BDDD7036AF35107
:1009C0001D0FE96E000E0320EA6EEF6A4F2A010E3A
:1009D000016E04D00001000E016E010100019EEFC6
:1009E00005F0016603D0026602D007D0022A00C0DB
:1009F000EEFF012EFCD7022EFAD708EF05F04F6A62
:100A0000EA6A1D0EE96E006A026A320E016EE9D7CB
:100A1000DEEF05F00101B951010A000103E0030A0C
:100A200003E0FAD0FED6F8D0010EEA6EBA0EE96EF7
:100A3000F2CFF1F1F29E000E71EC00F00A00090015
:100A4000F550EE6E0009FBE10101F1BFF28E0201EB
:100A50003F6BE80E3E6F010E416FBA0E406F000112
:100A60001BDD02C07FF101C07EF101017E5302E176
:100A70007F532CE00E0EF16F190EF26F010EF46F22
:100A8000C90EF36F000123DF010EEA6ED80EE96E86
:100A9000F2CFF1F1F29E0C0E016EF76A000E81ECBE
:100AA00000F00A000900F5CFEEFF012EFBD701018F
:100AB000F1BFF28E010EF46FC90EF36F010EF66FE7
:100AC000D80EF56F0001B0DDA7D00101010EEA6E6E
:100AD000BA0EE96EF2CFF1F1F29E000E000194EC35
:100AE00000F00A000900F550EE6E0009FBE101017B
:100AF000F1BFF28E02013F6BE80E3E6F010E416FB7
:100B0000BA0E406F0001C8DC02C07FF101C07EF167
:100B100001017E5302E17F5328E00E0EF16F4B0E70
:100B2000F26F010EF46FC90EF36F0001D0DE010EFB
:100B30000101F26FC90EF16F0001F3D60E0E010133
:100B4000F16F190EF26F010EF46FC90EF36F000111
:100B5000BEDE010E0101F46FC90EF36FF66B1D0EC0
:100B6000F56F000161DD58D00101010EEA6EBA0E89
:100B7000E96EF2CFF1F1F29E000E0001A5EC00F05B
:100B80000A000900F550EE6E0009FBE10101F1BF1A
:100B9000F28E02013F6BE80E3E6F010E416FBA0EFE
:100BA000406F000179DC02C07FF101C07EF10101DC
:100BB0007E5302E17F532FE0000121D70E0E010189
:100BC000F16F190EF26F010EF46FC90EF36F000191
:100BD0007EDE010EEA6EE40EE96EF2CFF1F1F29ED6
:100BE0000D0E016EF76A000EB6EC00F00A00090067
:100BF000F5CFEEFF012EFBD70101F1BFF28E010E02
:100C0000F46FC90EF36F010EF66FE40EF56F00017D
:100C10000BDD02D0010100011200010182A14CD0C4
:100C2000F29CF29EF2BEFDD700019CDD01C08DF169
:100C300001018D5305E08DC1B9F10001EBDE010129
:100C400082A335D0829300018DDD01C08DF18DC16D
:100C5000B9F1E0DE640E0101B96F0001EBEC01F0C7
:100C6000010EEA6EA80EE96EF2CFB9F1F29E0E0EF9
:100C7000016EF76A000E47EC01F00A000900F5CF9B
:100C8000EEFF012EFBD70101B9BFF28E4F0EB66FFA
:100C90004B0EB76FB86B010E0201326FA80E316FA9
:100CA000010E346FB60E336F000142DC01018D6B13
:100CB0008291C00EF2129D8A0001F8EF06F0F86AE8
:100CC000D09E078E166AB886220EAF6E000EB06EEA
:100CD000A60EAC6E900EAB6E4F6A01017F6B7E6B01
:100CE000860E816FA00E806F866B6A0E856FCF0EA9
:100CF000846FC00E836F886B876B82918295829719
:100D00008A6B896B8C6B8B6B8D6B8293C150C00B24
:100D10000F09C16E070EB46E176A186A000E926E44
:100D2000936E800E946E000E956EC150C00B0F092D
:100D3000C16EC290D190C30ED56ED76A060ED66E24
:100D4000F28A9D8AC00EF2128B8A080EA86FFA0EE4
:100D5000B96F0001EBEC01F00101A82FF8D78B9AD5
:100D6000140EA86FFA0EB96F0001EBEC01F001014F
:100D7000A82FF8D7010EEA6E8E0EE96EF2CFA8F119
:100D8000F29E0D0E016EF76A000E00011FEC01F0DD
:100D90000A000900F5CFEEFF012EFBD70101A8BF25
:100DA000F28E010EEA6E9B0EE96EF2CFAAF1F29E70
:100DB0000D0E016EF76A000E000133EC01F00A001F
:100DC0000900F5CFEEFF012EFBD70101AABFF28E7D
:100DD000010EF46F8E0EF36F010EF66F9B0EF56F22
:100DE000000122DC010182A504D08295000115D703
:100DF000010182A705D08297000102EF00F00101F6
:040E0000F2D7030022
:020000040030CA
:0E0000003BCE3E1E0087A1000FC00FE00F4058
:00000001FF
;PIC18F4550
;CRC=4AFE  CREATED="14-out-18 01:09"
